{
  "contractName": "Auction",
  "abi": [
    {
      "inputs": [],
      "payable": false,
      "stateMutability": "nonpayable",
      "type": "constructor"
    },
    {
      "constant": false,
      "inputs": [
        {
          "internalType": "string",
          "name": "_item_name",
          "type": "string"
        },
        {
          "internalType": "string",
          "name": "_item_desc",
          "type": "string"
        },
        {
          "internalType": "uint256",
          "name": "_asking_price",
          "type": "uint256"
        },
        {
          "internalType": "uint256",
          "name": "_auction_type",
          "type": "uint256"
        }
      ],
      "name": "addItem",
      "outputs": [
        {
          "internalType": "uint256",
          "name": "",
          "type": "uint256"
        }
      ],
      "payable": false,
      "stateMutability": "nonpayable",
      "type": "function"
    },
    {
      "constant": false,
      "inputs": [
        {
          "internalType": "uint256",
          "name": "item_id",
          "type": "uint256"
        },
        {
          "internalType": "bytes32",
          "name": "hashString",
          "type": "bytes32"
        }
      ],
      "name": "bidItem",
      "outputs": [],
      "payable": false,
      "stateMutability": "nonpayable",
      "type": "function"
    },
    {
      "constant": false,
      "inputs": [
        {
          "internalType": "uint256",
          "name": "item_id",
          "type": "uint256"
        }
      ],
      "name": "closeBid",
      "outputs": [],
      "payable": false,
      "stateMutability": "nonpayable",
      "type": "function"
    },
    {
      "constant": false,
      "inputs": [
        {
          "internalType": "uint256",
          "name": "item_id",
          "type": "uint256"
        },
        {
          "internalType": "string",
          "name": "password",
          "type": "string"
        },
        {
          "internalType": "string",
          "name": "public_key",
          "type": "string"
        }
      ],
      "name": "verifyBid",
      "outputs": [],
      "payable": true,
      "stateMutability": "payable",
      "type": "function"
    },
    {
      "constant": false,
      "inputs": [
        {
          "internalType": "uint256",
          "name": "item_id",
          "type": "uint256"
        }
      ],
      "name": "revealBid",
      "outputs": [],
      "payable": true,
      "stateMutability": "payable",
      "type": "function"
    },
    {
      "constant": true,
      "inputs": [
        {
          "internalType": "uint256",
          "name": "item_id",
          "type": "uint256"
        }
      ],
      "name": "getKey",
      "outputs": [
        {
          "internalType": "string",
          "name": "",
          "type": "string"
        }
      ],
      "payable": false,
      "stateMutability": "view",
      "type": "function"
    },
    {
      "constant": false,
      "inputs": [
        {
          "internalType": "uint256",
          "name": "item_id",
          "type": "uint256"
        },
        {
          "internalType": "string",
          "name": "secret_string",
          "type": "string"
        }
      ],
      "name": "giveAccess",
      "outputs": [],
      "payable": true,
      "stateMutability": "payable",
      "type": "function"
    },
    {
      "constant": true,
      "inputs": [],
      "name": "getBalance",
      "outputs": [
        {
          "internalType": "uint256",
          "name": "",
          "type": "uint256"
        }
      ],
      "payable": false,
      "stateMutability": "view",
      "type": "function"
    },
    {
      "constant": true,
      "inputs": [
        {
          "internalType": "uint256",
          "name": "item_id",
          "type": "uint256"
        }
      ],
      "name": "accessItem",
      "outputs": [
        {
          "internalType": "string",
          "name": "",
          "type": "string"
        }
      ],
      "payable": false,
      "stateMutability": "view",
      "type": "function"
    },
    {
      "constant": false,
      "inputs": [
        {
          "internalType": "uint256",
          "name": "item_id",
          "type": "uint256"
        },
        {
          "internalType": "string",
          "name": "item_name",
          "type": "string"
        }
      ],
      "name": "changeName",
      "outputs": [],
      "payable": false,
      "stateMutability": "nonpayable",
      "type": "function"
    },
    {
      "constant": false,
      "inputs": [
        {
          "internalType": "uint256",
          "name": "item_id",
          "type": "uint256"
        },
        {
          "internalType": "uint256",
          "name": "price",
          "type": "uint256"
        }
      ],
      "name": "changePrice",
      "outputs": [],
      "payable": false,
      "stateMutability": "nonpayable",
      "type": "function"
    },
    {
      "constant": true,
      "inputs": [],
      "name": "viewActiveListings",
      "outputs": [
        {
          "internalType": "string",
          "name": "",
          "type": "string"
        }
      ],
      "payable": false,
      "stateMutability": "view",
      "type": "function"
    }
  ],
  "bytecode": "0x608060405234801561001057600080fd5b5060008081905550613758806100276000396000f3fe6080604052600436106100a75760003560e01c80639e5406cf116100645780639e5406cf1461041f578063b3de019c146104af578063bb5b27e1146104f4578063c39cbef1146105a8578063dc8cbd2c1461067a578063f6a8981014610801576100a7565b80630468d2c6146100ac57806305d2dd9c146100f157806312065fe01461024d578063321a8fa5146102785780633e3b903e1461033d5780635f099c111461036b575b600080fd5b3480156100b857600080fd5b506100ef600480360360408110156100cf57600080fd5b81019080803590602001909291908035906020019092919050505061083c565b005b61024b6004803603606081101561010757600080fd5b81019080803590602001909291908035906020019064010000000081111561012e57600080fd5b82018360208201111561014057600080fd5b8035906020019184600183028401116401000000008311171561016257600080fd5b91908080601f016020809104026020016040519081016040528093929190818152602001838380828437600081840152601f19601f820116905080830192505050505050509192919290803590602001906401000000008111156101c557600080fd5b8201836020820111156101d757600080fd5b803590602001918460018302840111640100000000831117156101f957600080fd5b91908080601f016020809104026020016040519081016040528093929190818152602001838380828437600081840152601f19601f8201169050808301925050505050505091929192905050506109b2565b005b34801561025957600080fd5b50610262610d31565b6040518082815260200191505060405180910390f35b61033b6004803603604081101561028e57600080fd5b8101908080359060200190929190803590602001906401000000008111156102b557600080fd5b8201836020820111156102c757600080fd5b803590602001918460018302840111640100000000831117156102e957600080fd5b91908080601f016020809104026020016040519081016040528093929190818152602001838380828437600081840152601f19601f820116905080830192505050505050509192919290505050610d39565b005b6103696004803603602081101561035357600080fd5b8101908080359060200190929190505050611048565b005b34801561037757600080fd5b506103a46004803603602081101561038e57600080fd5b8101908080359060200190929190505050611834565b6040518080602001828103825283818151815260200191508051906020019080838360005b838110156103e45780820151818401526020810190506103c9565b50505050905090810190601f1680156104115780820380516001836020036101000a031916815260200191505b509250505060405180910390f35b34801561042b57600080fd5b50610434611adf565b6040518080602001828103825283818151815260200191508051906020019080838360005b83811015610474578082015181840152602081019050610459565b50505050905090810190601f1680156104a15780820380516001836020036101000a031916815260200191505b509250505060405180910390f35b3480156104bb57600080fd5b506104f2600480360360408110156104d257600080fd5b810190808035906020019092919080359060200190929190505050612386565b005b34801561050057600080fd5b5061052d6004803603602081101561051757600080fd5b8101908080359060200190929190505050612620565b6040518080602001828103825283818151815260200191508051906020019080838360005b8381101561056d578082015181840152602081019050610552565b50505050905090810190601f16801561059a5780820380516001836020036101000a031916815260200191505b509250505060405180910390f35b3480156105b457600080fd5b50610678600480360360408110156105cb57600080fd5b8101908080359060200190929190803590602001906401000000008111156105f257600080fd5b82018360208201111561060457600080fd5b8035906020019184600183028401116401000000008311171561062657600080fd5b91908080601f016020809104026020016040519081016040528093929190818152602001838380828437600081840152601f19601f8201169050808301925050505050505091929192905050506128e7565b005b34801561068657600080fd5b506107eb6004803603608081101561069d57600080fd5b81019080803590602001906401000000008111156106ba57600080fd5b8201836020820111156106cc57600080fd5b803590602001918460018302840111640100000000831117156106ee57600080fd5b91908080601f016020809104026020016040519081016040528093929190818152602001838380828437600081840152601f19601f8201169050808301925050505050505091929192908035906020019064010000000081111561075157600080fd5b82018360208201111561076357600080fd5b8035906020019184600183028401116401000000008311171561078557600080fd5b91908080601f016020809104026020016040519081016040528093929190818152602001838380828437600081840152601f19601f8201169050808301925050505050505091929192908035906020019092919080359060200190929190505050612b91565b6040518082815260200191505060405180910390f35b34801561080d57600080fd5b5061083a6004803603602081101561082457600080fd5b8101908080359060200190929190505050612ded565b005b600054821115801561084e5750600082115b6108c0576040517f08c379a00000000000000000000000000000000000000000000000000000000081526004018080602001828103825260188152602001807f4974656d206e6f742070726573656e7420696e206c697374000000000000000081525060200191505060405180910390fd5b600060028111156108cd57fe5b60016000848152602001908152602001600020600b0160009054906101000a900460ff1660028111156108fc57fe5b1461096f576040517f08c379a00000000000000000000000000000000000000000000000000000000081526004018080602001828103825260138152602001807f41756374696f6e206e6f74206f6e676f696e670000000000000000000000000081525060200191505060405180910390fd5b6001806000848152602001908152602001600020600601600083815260200190815260200160002060006101000a81548160ff0219169083151502179055505050565b60005483111580156109c45750600083115b610a36576040517f08c379a00000000000000000000000000000000000000000000000000000000081526004018080602001828103825260188152602001807f4974656d206e6f742070726573656e7420696e206c697374000000000000000081525060200191505060405180910390fd5b60016002811115610a4357fe5b60016000858152602001908152602001600020600b0160009054906101000a900460ff166002811115610a7257fe5b14610ae5576040517f08c379a00000000000000000000000000000000000000000000000000000000081526004018080602001828103825260208152602001807f42696420766572696669636174696f6e206e6f7420696e2070726f677265737381525060200191505060405180910390fd5b6000338334604051602001808473ffffffffffffffffffffffffffffffffffffffff1673ffffffffffffffffffffffffffffffffffffffff1660601b815260140183805190602001908083835b60208310610b555780518252602082019150602081019050602083039250610b32565b6001836020036101000a03801982511681845116808217855250505050505090500182815260200193505050506040516020818303038152906040528051906020012090506001151560016000868152602001908152602001600020600601600083815260200190815260200160002060009054906101000a900460ff16151514610c48576040517f08c379a000000000000000000000000000000000000000000000000000000000815260040180806020018281038252600f8152602001807f496e76616c69642064657461696c73000000000000000000000000000000000081525060200191505060405180910390fd5b6001600085815260200190815260200160002060070160405180606001604052803373ffffffffffffffffffffffffffffffffffffffff168152602001348152602001848152509080600181540180825580915050906001820390600052602060002090600302016000909192909190915060008201518160000160006101000a81548173ffffffffffffffffffffffffffffffffffffffff021916908373ffffffffffffffffffffffffffffffffffffffff160217905550602082015181600101556040820151816002019080519060200190610d279291906135a4565b5050505050505050565b600047905090565b816000548111158015610d4c5750600081115b610dbe576040517f08c379a00000000000000000000000000000000000000000000000000000000081526004018080602001828103825260188152602001807f4974656d206e6f742070726573656e7420696e206c697374000000000000000081525060200191505060405180910390fd5b6001600082815260200190815260200160002060000160009054906101000a900473ffffffffffffffffffffffffffffffffffffffff1673ffffffffffffffffffffffffffffffffffffffff163373ffffffffffffffffffffffffffffffffffffffff1614610e95576040517f08c379a000000000000000000000000000000000000000000000000000000000815260040180806020018281038252601a8152602001807f596f7520617265206e6f742073656c6c6572206f66206974656d00000000000081525060200191505060405180910390fd5b60026003811115610ea257fe5b6001600085815260200190815260200160002060000160149054906101000a900460ff166003811115610ed157fe5b14610f44576040517f08c379a00000000000000000000000000000000000000000000000000000000081526004018080602001828103825260168152602001807f4974656d206e6f7420707572636861736564207965740000000000000000000081525060200191505060405180910390fd5b81600160008581526020019081526020016000206003019080519060200190610f6e929190613624565b5060036001600085815260200190815260200160002060000160146101000a81548160ff02191690836003811115610fa257fe5b02179055506001600084815260200190815260200160002060000160009054906101000a900473ffffffffffffffffffffffffffffffffffffffff1673ffffffffffffffffffffffffffffffffffffffff166108fc60016000868152602001908152602001600020600501549081150290604051600060405180830381858888f19350505050158015611039573d6000803e3d6000fd5b5061104383612f5a565b505050565b600054811115801561105a5750600081115b6110cc576040517f08c379a00000000000000000000000000000000000000000000000000000000081526004018080602001828103825260188152602001807f4974656d206e6f742070726573656e7420696e206c697374000000000000000081525060200191505060405180910390fd5b600160028111156110d957fe5b60016000838152602001908152602001600020600b0160009054906101000a900460ff16600281111561110857fe5b1461117b576040517f08c379a00000000000000000000000000000000000000000000000000000000081526004018080602001828103825260208152602001807f42696420766572696669636174696f6e206e6f7420696e2070726f677265737381525060200191505060405180910390fd5b60008090506111886136a4565b6000809050600080905060008090505b60016000878152602001908152602001600020600701805490508110156113615760006001600088815260200190815260200160002060070182815481106111dc57fe5b90600052602060002090600302016001015490508083019250858111156113465785935080955060016000888152602001908152602001600020600701828154811061122457fe5b90600052602060002090600302016040518060600160405290816000820160009054906101000a900473ffffffffffffffffffffffffffffffffffffffff1673ffffffffffffffffffffffffffffffffffffffff1673ffffffffffffffffffffffffffffffffffffffff16815260200160018201548152602001600282018054600181600116156101000203166002900480601f0160208091040260200160405190810160405280929190818152602001828054600181600116156101000203166002900480156113365780601f1061130b57610100808354040283529160200191611336565b820191906000526020600020905b81548152906001019060200180831161131957829003601f168201915b5050505050815250509450611353565b83811115611352578093505b5b508080600101915050611198565b506000600281111561136f57fe5b60016000878152602001908152602001600020600b0160019054906101000a900460ff16600281111561139e57fe5b141561144c57826001600087815260200190815260200160002060080160008201518160000160006101000a81548173ffffffffffffffffffffffffffffffffffffffff021916908373ffffffffffffffffffffffffffffffffffffffff1602179055506020820151816001015560408201518160020190805190602001906114289291906135a4565b509050508360016000878152602001908152602001600020600501819055506117b3565b6001600281111561145957fe5b60016000878152602001908152602001600020600b0160019054906101000a900460ff16600281111561148857fe5b141561153657826001600087815260200190815260200160002060080160008201518160000160006101000a81548173ffffffffffffffffffffffffffffffffffffffff021916908373ffffffffffffffffffffffffffffffffffffffff1602179055506020820151816001015560408201518160020190805190602001906115129291906135a4565b509050508160016000878152602001908152602001600020600501819055506117b2565b60008090506115436136a4565b60006001600089815260200190815260200160002060070180549050905060008090505b818110156117ad57600082600160008c8152602001908152602001600020600701838154811061159357fe5b906000526020600020906003020160010154029050846115b38288613014565b10156116f857600160008b815260200190815260200160002060070182815481106115da57fe5b90600052602060002090600302016040518060600160405290816000820160009054906101000a900473ffffffffffffffffffffffffffffffffffffffff1673ffffffffffffffffffffffffffffffffffffffff1673ffffffffffffffffffffffffffffffffffffffff16815260200160018201548152602001600282018054600181600116156101000203166002900480601f0160208091040260200160405190810160405280929190818152602001828054600181600116156101000203166002900480156116ec5780601f106116c1576101008083540402835291602001916116ec565b820191906000526020600020905b8154815290600101906020018083116116cf57829003601f168201915b50505050508152505093505b83600160008c815260200190815260200160002060080160008201518160000160006101000a81548173ffffffffffffffffffffffffffffffffffffffff021916908373ffffffffffffffffffffffffffffffffffffffff16021790555060208201518160010155604082015181600201908051906020019061177c9291906135a4565b509050508360200151600160008c815260200190815260200160002060050181905550508080600101915050611567565b505050505b5b60026001600087815260200190815260200160002060000160146101000a81548160ff021916908360038111156117e657fe5b021790555060026001600080548152602001908152602001600020600b0160006101000a81548160ff0219169083600281111561181f57fe5b021790555061182d85613033565b5050505050565b60608160005481111580156118495750600081115b6118bb576040517f08c379a00000000000000000000000000000000000000000000000000000000081526004018080602001828103825260188152602001807f4974656d206e6f742070726573656e7420696e206c697374000000000000000081525060200191505060405180910390fd5b6001600082815260200190815260200160002060000160009054906101000a900473ffffffffffffffffffffffffffffffffffffffff1673ffffffffffffffffffffffffffffffffffffffff163373ffffffffffffffffffffffffffffffffffffffff1614806119d357506001600082815260200190815260200160002060080160000160009054906101000a900473ffffffffffffffffffffffffffffffffffffffff1673ffffffffffffffffffffffffffffffffffffffff163373ffffffffffffffffffffffffffffffffffffffff161480156119d257506003808111156119a157fe5b6001600083815260200190815260200160002060000160149054906101000a900460ff1660038111156119d057fe5b145b5b611a28576040517f08c379a00000000000000000000000000000000000000000000000000000000081526004018080602001828103825260238152602001806137016023913960400191505060405180910390fd5b600160008481526020019081526020016000206003018054600181600116156101000203166002900480601f016020809104026020016040519081016040528092919081815260200182805460018160011615610100020316600290048015611ad25780601f10611aa757610100808354040283529160200191611ad2565b820191906000526020600020905b815481529060010190602001808311611ab557829003601f168201915b5050505050915050919050565b6060806040518060200160405280600081525090506000600190505b600054811161237e5760016003811115611b1157fe5b6001600083815260200190815260200160002060000160149054906101000a900460ff166003811115611b4057fe5b141561237157816040516020018082805190602001908083835b60208310611b7d5780518252602082019150602081019050602083039250611b5a565b6001836020036101000a038019825116818451168082178552505050505050905001807f4974656d2d49443a200000000000000000000000000000000000000000000000815250600901915050604051602081830303815290604052915081611be582613201565b6040516020018083805190602001908083835b60208310611c1b5780518252602082019150602081019050602083039250611bf8565b6001836020036101000a03801982511681845116808217855250505050505090500182805190602001908083835b60208310611c6c5780518252602082019150602081019050602083039250611c49565b6001836020036101000a038019825116818451168082178552505050505050905001925050506040516020818303038152906040529150816040516020018082805190602001908083835b60208310611cda5780518252602082019150602081019050602083039250611cb7565b6001836020036101000a038019825116818451168082178552505050505050905001807f2c204974656d204e616d653a2000000000000000000000000000000000000000815250600d01915050604051602081830303815290604052915081600160008381526020019081526020016000206001016040516020018083805190602001908083835b60208310611d855780518252602082019150602081019050602083039250611d62565b6001836020036101000a03801982511681845116808217855250505050505090500182805460018160011615610100020316600290048015611dfe5780601f10611ddc576101008083540402835291820191611dfe565b820191906000526020600020905b815481529060010190602001808311611dea575b5050925050506040516020818303038152906040529150816040516020018082805190602001908083835b60208310611e4c5780518252602082019150602081019050602083039250611e29565b6001836020036101000a038019825116818451168082178552505050505050905001807f2c204974656d20446573633a2000000000000000000000000000000000000000815250600d01915050604051602081830303815290604052915081600160008381526020019081526020016000206002016040516020018083805190602001908083835b60208310611ef75780518252602082019150602081019050602083039250611ed4565b6001836020036101000a03801982511681845116808217855250505050505090500182805460018160011615610100020316600290048015611f705780601f10611f4e576101008083540402835291820191611f70565b820191906000526020600020905b815481529060010190602001808311611f5c575b5050925050506040516020818303038152906040529150816040516020018082805190602001908083835b60208310611fbe5780518252602082019150602081019050602083039250611f9b565b6001836020036101000a038019825116818451168082178552505050505050905001807f2c2041736b696e672050726963653a200000000000000000000000000000000081525060100191505060405160208183030381529060405291508161203c6001600084815260200190815260200160002060040154613201565b6040516020018083805190602001908083835b60208310612072578051825260208201915060208101905060208303925061204f565b6001836020036101000a03801982511681845116808217855250505050505090500182805190602001908083835b602083106120c357805182526020820191506020810190506020830392506120a0565b6001836020036101000a038019825116818451168082178552505050505050905001925050506040516020818303038152906040529150816040516020018082805190602001908083835b60208310612131578051825260208201915060208101905060208303925061210e565b6001836020036101000a038019825116818451168082178552505050505050905001807f2c2053656c6c65722049643a2000000000000000000000000000000000000000815250600d0191505060405160208183030381529060405291508161221d6001600084815260200190815260200160002060000160009054906101000a900473ffffffffffffffffffffffffffffffffffffffff16604051602001808273ffffffffffffffffffffffffffffffffffffffff1673ffffffffffffffffffffffffffffffffffffffff1660601b8152601401915050604051602081830303815290604052613335565b6040516020018083805190602001908083835b602083106122535780518252602082019150602081019050602083039250612230565b6001836020036101000a03801982511681845116808217855250505050505090500182805190602001908083835b602083106122a45780518252602082019150602081019050602083039250612281565b6001836020036101000a038019825116818451168082178552505050505050905001925050506040516020818303038152906040529150816040516020018082805190602001908083835b6020831061231257805182526020820191506020810190506020830392506122ef565b6001836020036101000a038019825116818451168082178552505050505050905001807f0a0000000000000000000000000000000000000000000000000000000000000081525060010191505060405160208183030381529060405291505b8080600101915050611afb565b508091505090565b8160005481111580156123995750600081115b61240b576040517f08c379a00000000000000000000000000000000000000000000000000000000081526004018080602001828103825260188152602001807f4974656d206e6f742070726573656e7420696e206c697374000000000000000081525060200191505060405180910390fd5b6001600082815260200190815260200160002060000160009054906101000a900473ffffffffffffffffffffffffffffffffffffffff1673ffffffffffffffffffffffffffffffffffffffff163373ffffffffffffffffffffffffffffffffffffffff16146124e2576040517f08c379a000000000000000000000000000000000000000000000000000000000815260040180806020018281038252601a8152602001807f596f7520617265206e6f742073656c6c6572206f66206974656d00000000000081525060200191505060405180910390fd5b600160038111156124ef57fe5b6001600085815260200190815260200160002060000160149054906101000a900460ff16600381111561251e57fe5b14612591576040517f08c379a00000000000000000000000000000000000000000000000000000000081526004018080602001828103825260148152602001807f4974656d20697320616c726561647920736f6c6400000000000000000000000081525060200191505060405180910390fd5b60006001600085815260200190815260200160002060000160146101000a81548160ff021916908360038111156125c457fe5b0217905550816001600085815260200190815260200160002060040181905550600180600085815260200190815260200160002060000160146101000a81548160ff0219169083600381111561261657fe5b0217905550505050565b60608160005481111580156126355750600081115b6126a7576040517f08c379a00000000000000000000000000000000000000000000000000000000081526004018080602001828103825260188152602001807f4974656d206e6f742070726573656e7420696e206c697374000000000000000081525060200191505060405180910390fd5b6001600082815260200190815260200160002060000160009054906101000a900473ffffffffffffffffffffffffffffffffffffffff1673ffffffffffffffffffffffffffffffffffffffff163373ffffffffffffffffffffffffffffffffffffffff161461277e576040517f08c379a000000000000000000000000000000000000000000000000000000000815260040180806020018281038252601a8152602001807f596f7520617265206e6f742073656c6c6572206f66206974656d00000000000081525060200191505060405180910390fd5b6002600381111561278b57fe5b6001600085815260200190815260200160002060000160149054906101000a900460ff1660038111156127ba57fe5b1461282d576040517f08c379a00000000000000000000000000000000000000000000000000000000081526004018080602001828103825260118152602001807f4b4559204e4f5420415641494c41424c4500000000000000000000000000000081525060200191505060405180910390fd5b600160008481526020019081526020016000206008016002018054600181600116156101000203166002900480601f0160208091040260200160405190810160405280929190818152602001828054600181600116156101000203166002900480156128da5780601f106128af576101008083540402835291602001916128da565b820191906000526020600020905b8154815290600101906020018083116128bd57829003601f168201915b5050505050915050919050565b8160005481111580156128fa5750600081115b61296c576040517f08c379a00000000000000000000000000000000000000000000000000000000081526004018080602001828103825260188152602001807f4974656d206e6f742070726573656e7420696e206c697374000000000000000081525060200191505060405180910390fd5b6001600082815260200190815260200160002060000160009054906101000a900473ffffffffffffffffffffffffffffffffffffffff1673ffffffffffffffffffffffffffffffffffffffff163373ffffffffffffffffffffffffffffffffffffffff1614612a43576040517f08c379a000000000000000000000000000000000000000000000000000000000815260040180806020018281038252601a8152602001807f596f7520617265206e6f742073656c6c6572206f66206974656d00000000000081525060200191505060405180910390fd5b60016003811115612a5057fe5b6001600085815260200190815260200160002060000160149054906101000a900460ff166003811115612a7f57fe5b14612af2576040517f08c379a00000000000000000000000000000000000000000000000000000000081526004018080602001828103825260148152602001807f4974656d20697320616c726561647920736f6c6400000000000000000000000081525060200191505060405180910390fd5b60006001600085815260200190815260200160002060000160146101000a81548160ff02191690836003811115612b2557fe5b021790555081600160008581526020019081526020016000206001019080519060200190612b54929190613624565b50600180600085815260200190815260200160002060000160146101000a81548160ff02191690836003811115612b8757fe5b0217905550505050565b600080600081548092919060010191905055506000600160008054815260200190815260200160002060000160146101000a81548160ff02191690836003811115612bd857fe5b02179055508360016000805481526020019081526020016000206002019080519060200190612c08929190613624565b5033600160008054815260200190815260200160002060000160006101000a81548173ffffffffffffffffffffffffffffffffffffffff021916908373ffffffffffffffffffffffffffffffffffffffff1602179055508460016000805481526020019081526020016000206001019080519060200190612c8a929190613624565b508260016000805481526020019081526020016000206004018190555060018060008054815260200190815260200160002060000160146101000a81548160ff02191690836003811115612cda57fe5b021790555060006001600080548152602001908152602001600020600b0160006101000a81548160ff02191690836002811115612d1357fe5b02179055506000821415612d5f5760006001600080548152602001908152602001600020600b0160016101000a81548160ff02191690836002811115612d5557fe5b0217905550612de0565b6001821415612da557600180600080548152602001908152602001600020600b0160016101000a81548160ff02191690836002811115612d9b57fe5b0217905550612ddf565b60026001600080548152602001908152602001600020600b0160016101000a81548160ff02191690836002811115612dd957fe5b02179055505b5b6000549050949350505050565b6000548111158015612dff5750600081115b612e71576040517f08c379a00000000000000000000000000000000000000000000000000000000081526004018080602001828103825260188152602001807f4974656d206e6f742070726573656e7420696e206c697374000000000000000081525060200191505060405180910390fd5b60006002811115612e7e57fe5b60016000838152602001908152602001600020600b0160009054906101000a900460ff166002811115612ead57fe5b14612f20576040517f08c379a00000000000000000000000000000000000000000000000000000000081526004018080602001828103825260138152602001807f41756374696f6e206e6f74206f6e676f696e670000000000000000000000000081525060200191505060405180910390fd5b6001806000838152602001908152602001600020600b0160006101000a81548160ff02191690836002811115612f5257fe5b021790555050565b6000600160008381526020019081526020016000206005015460016000848152602001908152602001600020600801600101540390506001600083815260200190815260200160002060080160000160009054906101000a900473ffffffffffffffffffffffffffffffffffffffff1673ffffffffffffffffffffffffffffffffffffffff166108fc829081150290604051600060405180830381858888f1935050505015801561300f573d6000803e3d6000fd5b505050565b600081831061302757818303905061302d565b82820390505b92915050565b60008090505b60016000838152602001908152602001600020600701805490508110156131fd576001600083815260200190815260200160002060080160000160009054906101000a900473ffffffffffffffffffffffffffffffffffffffff1673ffffffffffffffffffffffffffffffffffffffff166001600084815260200190815260200160002060070182815481106130cb57fe5b906000526020600020906003020160000160009054906101000a900473ffffffffffffffffffffffffffffffffffffffff1673ffffffffffffffffffffffffffffffffffffffff16141561311e576131f0565b600060016000848152602001908152602001600020600701828154811061314157fe5b906000526020600020906003020160010154905060016000848152602001908152602001600020600701828154811061317657fe5b906000526020600020906003020160000160009054906101000a900473ffffffffffffffffffffffffffffffffffffffff1673ffffffffffffffffffffffffffffffffffffffff166108fc829081150290604051600060405180830381858888f193505050501580156131ed573d6000803e3d6000fd5b50505b8080600101915050613039565b5050565b60606000829050600081141561324f576040518060400160405280600181526020017f3000000000000000000000000000000000000000000000000000000000000000815250915050613330565b600081905060005b60008214613279578080600101915050600a828161327157fe5b049150613257565b6060816040519080825280601f01601f1916602001820160405280156132ae5781602001600182028038833980820191505090505b50905060006001830390505b6000851461332757600a85816132cc57fe5b0660300160f81b828280600190039350815181106132e657fe5b60200101907effffffffffffffffffffffffffffffffffffffffffffffffffffffffffffff1916908160001a905350600a858161331f57fe5b0494506132ba565b81955050505050505b919050565b6060806040518060400160405280601081526020017f30313233343536373839616263646566000000000000000000000000000000008152509050606060028451026002016040519080825280601f01601f1916602001820160405280156133ac5781602001600182028038833980820191505090505b5090507f3000000000000000000000000000000000000000000000000000000000000000816000815181106133dd57fe5b60200101907effffffffffffffffffffffffffffffffffffffffffffffffffffffffffffff1916908160001a9053507f78000000000000000000000000000000000000000000000000000000000000008160018151811061343a57fe5b60200101907effffffffffffffffffffffffffffffffffffffffffffffffffffffffffffff1916908160001a90535060008090505b84518110156135995782600486838151811061348757fe5b602001015160f81c60f81b7effffffffffffffffffffffffffffffffffffffffffffffffffffffffffffff1916901c60f81c60ff16815181106134c657fe5b602001015160f81c60f81b8260028302600201815181106134e357fe5b60200101907effffffffffffffffffffffffffffffffffffffffffffffffffffffffffffff1916908160001a90535082600f60f81b86838151811061352457fe5b602001015160f81c60f81b1660f81c60ff168151811061354057fe5b602001015160f81c60f81b82600283026003018151811061355d57fe5b60200101907effffffffffffffffffffffffffffffffffffffffffffffffffffffffffffff1916908160001a905350808060010191505061346f565b508092505050919050565b828054600181600116156101000203166002900490600052602060002090601f016020900481019282601f106135e557805160ff1916838001178555613613565b82800160010185558215613613579182015b828111156136125782518255916020019190600101906135f7565b5b50905061362091906136db565b5090565b828054600181600116156101000203166002900490600052602060002090601f016020900481019282601f1061366557805160ff1916838001178555613693565b82800160010185558215613693579182015b82811115613692578251825591602001919060010190613677565b5b5090506136a091906136db565b5090565b6040518060600160405280600073ffffffffffffffffffffffffffffffffffffffff16815260200160008152602001606081525090565b6136fd91905b808211156136f95760008160009055506001016136e1565b5090565b9056fe596f7520617265206e6f74206f776e6572206f722073656c6c6572206f66206974656da265627a7a7231582002807b1e7e546723415670999beb01924a1d552e4c7255d2ec9c26d9bcfa978564736f6c63430005100032",
  "source": "pragma solidity ^0.5.0;\n\n/**\n * @title   Screen Selling Platform\n * @notice  This contract abstracts the screen selling\n * marketplace and provides functions to perform\n * transactions\n * @author  Team Block-Daggers\n *\n */\ncontract Auction {\n    /**\n     * This enum defines status of screen (item) present in the\n     * marketplace\n     *\n     */\n    enum ITEM_STATUS {\n        LOCKED, /// Item is being processed, hence is not listed in marketplace\n        OPEN, /// Item is being sold at marketplace\n        BUYING, /// Buyer has paid for the item, but hasn't received it yet\n        BOUGHT /// Buyer received the item\n    }\n\n    enum AUCTION_STATUS {\n        ONGOING,\n        VERIFICATION,\n        REVEALED\n    }\n\n    enum AUCTION_TYPE {\n        FIRST_PRICE,\n        SECOND_PRICE,\n        AVG_PRICE\n    }\n\n    /**\n     * This struct defines the blueprint of each screen (item)\n     * present in the marketplace\n     *\n     */\n    struct Listing {\n        address payable seller;\n        ITEM_STATUS status;\n        string item_name;\n        string item_desc;\n        string secret_string;\n        uint256 asking_price;\n        uint256 final_price;\n        mapping(bytes32 => bool) hashedBids;\n        Bidder[] verifiedBids;\n        Bidder bidWinner;\n        AUCTION_STATUS auctionStatus;\n        AUCTION_TYPE auctionType;\n    }\n\n    struct Bidder {\n        address payable buyer;\n        uint256 price;\n        string public_key;\n    }\n\n    uint256 private itemsCount;\n    mapping(uint256 => Listing) private itemsList;\n\n    /**\n     * Initialising smart contract to the scenario when no item\n     * is present in the marketplace\n     *\n     */\n    constructor() public {\n        itemsCount = 0;\n    }\n\n    /**\n     * Allows only seller of item to access the function\n     *\n     * @param index unique id of item\n     */\n    modifier onlyItemSeller(uint256 index) {\n        require(index <= itemsCount && index > 0, \"Item not present in list\");\n        require(\n            msg.sender == itemsList[index].seller,\n            \"You are not seller of item\"\n        );\n        _;\n    }\n\n    /**\n     * Allows only buyer or seller to access the function\n     *\n     * @param index unique id of item\n     */\n    modifier onlyItemOwnerOrSeller(uint256 index) {\n        require(index <= itemsCount && index > 0, \"Item not present in list\");\n\n        require(\n            msg.sender == itemsList[index].seller ||\n                (msg.sender == itemsList[index].bidWinner.buyer &&\n                    itemsList[index].status == ITEM_STATUS.BOUGHT),\n            \"You are not owner or seller of item\"\n        );\n        _;\n    }\n\n    /**\n     * Adds an item in the marketplace\n     * Used by: Seller\n     *\n     * @param _item_name name of item\n     * @param _item_desc description of item\n     * @param _asking_price asking price of item\n     */\n    function addItem(\n        string memory _item_name,\n        string memory _item_desc,\n        uint256 _asking_price,\n        uint256 _auction_type\n    ) public returns (uint256) {\n        itemsCount++;\n        itemsList[itemsCount].status = ITEM_STATUS.LOCKED;\n        itemsList[itemsCount].item_desc = _item_desc;\n        itemsList[itemsCount].seller = msg.sender;\n        itemsList[itemsCount].item_name = _item_name;\n        itemsList[itemsCount].asking_price = _asking_price;\n        itemsList[itemsCount].status = ITEM_STATUS.OPEN;\n        itemsList[itemsCount].auctionStatus = AUCTION_STATUS.ONGOING;\n        if (_auction_type == 0) {\n            itemsList[itemsCount].auctionType = AUCTION_TYPE.FIRST_PRICE;\n        } else if (_auction_type == 1) {\n            itemsList[itemsCount].auctionType = AUCTION_TYPE.SECOND_PRICE;\n        } else {\n            itemsList[itemsCount].auctionType = AUCTION_TYPE.AVG_PRICE;\n        }\n        return itemsCount;\n    }\n\n    function bidItem(uint256 item_id, bytes32 hashString) public {\n        require(\n            item_id <= itemsCount && item_id > 0,\n            \"Item not present in list\"\n        );\n        require(\n            itemsList[item_id].auctionStatus == AUCTION_STATUS.ONGOING,\n            \"Auction not ongoing\"\n        );\n\n        itemsList[item_id].hashedBids[hashString] = true;\n    }\n\n    function closeBid(uint256 item_id) public {\n        require(\n            item_id <= itemsCount && item_id > 0,\n            \"Item not present in list\"\n        );\n        require(\n            itemsList[item_id].auctionStatus == AUCTION_STATUS.ONGOING,\n            \"Auction not ongoing\"\n        );\n\n        itemsList[item_id].auctionStatus = AUCTION_STATUS.VERIFICATION;\n    }\n\n    function verifyBid(\n        uint256 item_id,\n        string memory password,\n        string memory public_key\n    ) public payable {\n        require(\n            item_id <= itemsCount && item_id > 0,\n            \"Item not present in list\"\n        );\n        require(\n            itemsList[item_id].auctionStatus == AUCTION_STATUS.VERIFICATION,\n            \"Bid verification not in progress\"\n        );\n\n        bytes32 hashValue = keccak256(\n            abi.encodePacked(msg.sender, password, msg.value)\n        );\n        if(itemsList[item_id].hashedBids[hashValue] != true){\n            revert(\"Invalid details\");\n        }\n\n        itemsList[item_id].verifiedBids.push(\n            Bidder(msg.sender, msg.value, public_key)\n        );\n    }\n\n    function abs(uint256 a, uint256 b) private pure returns (uint256) {\n        if (a >= b) {\n            return a - b;\n        } else {\n            return b - a;\n        }\n    }\n\n    function revealBid(uint256 item_id) public payable {\n        require(\n            item_id <= itemsCount && item_id > 0,\n            \"Item not present in list\"\n        );\n        require(\n            itemsList[item_id].auctionStatus == AUCTION_STATUS.VERIFICATION,\n            \"Bid verification not in progress\"\n        );\n\n        uint256 maxBid = 0;\n        Bidder memory maxBidder;\n        uint256 secondMaxBid = 0;\n        uint256 totalBid = 0;\n\n        for (uint256 i = 0; i < itemsList[item_id].verifiedBids.length; i++) {\n            uint256 currentBidPrice = itemsList[item_id].verifiedBids[i].price;\n            totalBid += currentBidPrice;\n\n            if (currentBidPrice > maxBid) {\n                secondMaxBid = maxBid;\n                maxBid = currentBidPrice;\n                maxBidder = itemsList[item_id].verifiedBids[i];\n            } else if (currentBidPrice > secondMaxBid) {\n                secondMaxBid = currentBidPrice;\n            }\n        }\n\n        if (itemsList[item_id].auctionType == AUCTION_TYPE.FIRST_PRICE) {\n            itemsList[item_id].bidWinner = maxBidder;\n            itemsList[item_id].final_price = maxBid;\n        } else if (\n            itemsList[item_id].auctionType == AUCTION_TYPE.SECOND_PRICE\n        ) {\n            itemsList[item_id].bidWinner = maxBidder;\n            itemsList[item_id].final_price = secondMaxBid;\n        } else {\n            uint256 minDiff = 0;\n            Bidder memory avgBidder;\n            uint256 n = itemsList[item_id].verifiedBids.length;\n            for (uint256 i = 0; i < n; i++) {\n                uint256 currentBidPrice = itemsList[item_id]\n                    .verifiedBids[i]\n                    .price * n;\n                if (abs(currentBidPrice, totalBid) < minDiff) {\n                    avgBidder = itemsList[item_id].verifiedBids[i];\n                }\n\n                itemsList[item_id].bidWinner = avgBidder;\n                itemsList[item_id].final_price = avgBidder.price;\n            }\n        }\n\n        itemsList[item_id].status = ITEM_STATUS.BUYING;\n        itemsList[itemsCount].auctionStatus = AUCTION_STATUS.REVEALED;\n        returnNonWinnerMoney(item_id);\n    }\n\n    /**\n     * Gets public key of the buyer from the item being bought\n     * Used by: Seller\n     *\n     * @param item_id unique id of item\n     */\n    function getKey(uint256 item_id)\n        public\n        view\n        onlyItemSeller(item_id)\n        returns (string memory)\n    {\n        require(\n            itemsList[item_id].status == ITEM_STATUS.BUYING,\n            \"KEY NOT AVAILABLE\"\n        );\n        return itemsList[item_id].bidWinner.public_key;\n    }\n\n    /**\n     * Assigns encrypted password to the item which can be only decrypted\n     * by the buyer\n     * Thus, it simulates delivery of the screen (item) from the seller\n     * Item is marked as BOUGHT\n     * Used by: Seller\n     *\n     * @param item_id unique id of item\n     * @param secret_string Encrypted password of the screen (i.e.\n     *                           item) along with the public key of the buyer\n     */\n    function giveAccess(uint256 item_id, string memory secret_string)\n        public\n        payable\n        onlyItemSeller(item_id)\n    {\n        require(\n            itemsList[item_id].status == ITEM_STATUS.BUYING,\n            \"Item not purchased yet\"\n        );\n        itemsList[item_id].secret_string = secret_string;\n        itemsList[item_id].status = ITEM_STATUS.BOUGHT;\n        itemsList[item_id].seller.transfer(itemsList[item_id].final_price);\n        // return pending money of bid winner like in case of auction type 2\n        returnWinnerPendingMoney(item_id);\n    }\n\n    function returnWinnerPendingMoney(uint256 item_id) private {\n        uint256 pendingMoney = itemsList[item_id].bidWinner.price -\n            itemsList[item_id].final_price;\n        itemsList[item_id].bidWinner.buyer.transfer(pendingMoney);\n    }\n\n    function returnNonWinnerMoney(uint256 item_id) private {\n        for (uint256 i = 0; i < itemsList[item_id].verifiedBids.length; i++) {\n            if (\n                itemsList[item_id].verifiedBids[i].buyer ==\n                itemsList[item_id].bidWinner.buyer\n            ) {\n                continue;\n            }\n\n            uint256 returnPrice = itemsList[item_id].verifiedBids[i].price;\n            itemsList[item_id].verifiedBids[i].buyer.transfer(returnPrice);\n        }\n    }\n\n    /**\n     * @dev View pending balance in escrow account\n     * Used by: Developer\n     *\n     */\n    function getBalance() public view returns (uint256) {\n        return address(this).balance;\n    }\n\n    /**\n     * Returns encrypted password of the delivered item\n     * Used by: Buyer, (optional) Seller\n     *\n     * @param item_id unique id of item\n     */\n    function accessItem(uint256 item_id)\n        public\n        view\n        onlyItemOwnerOrSeller(item_id)\n        returns (string memory)\n    {\n        return itemsList[item_id].secret_string;\n    }\n\n    /**\n     * Updates the name of the item listed in the marketplace\n     * Used by: Seller\n     *\n     * @param item_id unique id of item\n     * @param item_name name of item\n     */\n    function changeName(uint256 item_id, string memory item_name)\n        public\n        onlyItemSeller(item_id)\n    {\n        require(\n            itemsList[item_id].status == ITEM_STATUS.OPEN,\n            \"Item is already sold\"\n        );\n        itemsList[item_id].status = ITEM_STATUS.LOCKED;\n        itemsList[item_id].item_name = item_name;\n        itemsList[item_id].status = ITEM_STATUS.OPEN;\n    }\n\n    /**\n     * Updates the price of the item listed in the marketplace\n     * Used by: seller\n     *\n     * @param item_id unique id of item\n     * @param price item price\n     */\n    function changePrice(uint256 item_id, uint256 price)\n        public\n        onlyItemSeller(item_id)\n    {\n        require(\n            itemsList[item_id].status == ITEM_STATUS.OPEN,\n            \"Item is already sold\"\n        );\n        itemsList[item_id].status = ITEM_STATUS.LOCKED;\n        itemsList[item_id].asking_price = price;\n        itemsList[item_id].status = ITEM_STATUS.OPEN;\n    }\n\n    /**\n     * Converts an unsigned integer to its equivalent string\n     *\n     * @param _i number\n     */\n    function uintToStr(uint256 _i)\n        private\n        pure\n        returns (string memory _uintAsString)\n    {\n        uint256 number = _i;\n        if (number == 0) {\n            return \"0\";\n        }\n        uint256 j = number;\n        uint256 len;\n        while (j != 0) {\n            len++;\n            j /= 10;\n        }\n        bytes memory bstr = new bytes(len);\n        uint256 k = len - 1;\n        while (number != 0) {\n            bstr[k--] = bytes1(uint8(48 + (number % 10)));\n            number /= 10;\n        }\n        return string(bstr);\n    }\n\n    /**\n     * Converts address to string\n     * Source: https://ethereum.stackexchange.com/a/58341\n     *\n     * @param account address of account\n     */\n    function toString(address account) private pure returns (string memory) {\n        return toString(abi.encodePacked(account));\n    }\n\n    function toString(bytes memory data) private pure returns (string memory) {\n        bytes memory alphabet = \"0123456789abcdef\";\n\n        bytes memory str = new bytes(2 + data.length * 2);\n        str[0] = \"0\";\n        str[1] = \"x\";\n        for (uint256 i = 0; i < data.length; i++) {\n            str[2 + i * 2] = alphabet[uint256(uint8(data[i] >> 4))];\n            str[3 + i * 2] = alphabet[uint256(uint8(data[i] & 0x0f))];\n        }\n        return string(str);\n    }\n\n    /**\n     * Returns the items present in the marketplace, which are\n     * ready to be sold\n     * Used by: public\n     *\n     */\n    function viewActiveListings() public view returns (string memory) {\n        string memory str = \"\";\n        for (uint256 i = 1; i <= itemsCount; i++) {\n            if (itemsList[i].status == ITEM_STATUS.OPEN) {\n                str = string(abi.encodePacked(str, \"Item-ID: \"));\n                str = string(abi.encodePacked(str, uintToStr(i)));\n                str = string(abi.encodePacked(str, \", Item Name: \"));\n                str = string(abi.encodePacked(str, itemsList[i].item_name));\n                str = string(abi.encodePacked(str, \", Item Desc: \"));\n                str = string(abi.encodePacked(str, itemsList[i].item_desc));\n                str = string(abi.encodePacked(str, \", Asking Price: \"));\n                str = string(\n                    abi.encodePacked(str, uintToStr(itemsList[i].asking_price))\n                );\n                str = string(abi.encodePacked(str, \", Seller Id: \"));\n                str = string(\n                    abi.encodePacked(\n                        str,\n                        toString(abi.encodePacked(itemsList[i].seller))\n                    )\n                );\n                str = string(abi.encodePacked(str, \"\\n\"));\n            }\n        }\n        return str;\n    }\n}\n",
  "sourcePath": "/home/b30wulffz/IIITH/monsoon2021/blockchain/assign2/AuctionApp2/contracts/Auction.sol",
  "compiler": {
    "name": "solc",
    "version": "0.5.16+commit.9c3226ce.Emscripten.clang"
  },
  "schemaVersion": "3.4.3",
  "updatedAt": "2021-10-07T12:14:03.914Z",
  "networkType": "ethereum",
  "devdoc": {
    "author": "Team Block-Daggers ",
    "methods": {
      "accessItem(uint256)": {
        "params": {
          "item_id": "unique id of item"
        }
      },
      "addItem(string,string,uint256,uint256)": {
        "params": {
          "_asking_price": "asking price of item",
          "_item_desc": "description of item",
          "_item_name": "name of item"
        }
      },
      "changeName(uint256,string)": {
        "params": {
          "item_id": "unique id of item",
          "item_name": "name of item"
        }
      },
      "changePrice(uint256,uint256)": {
        "params": {
          "item_id": "unique id of item",
          "price": "item price"
        }
      },
      "getBalance()": {
        "details": "View pending balance in escrow account Used by: Developer     "
      },
      "getKey(uint256)": {
        "params": {
          "item_id": "unique id of item"
        }
      },
      "giveAccess(uint256,string)": {
        "params": {
          "item_id": "unique id of item",
          "secret_string": "Encrypted password of the screen (i.e.                          item) along with the public key of the buyer"
        }
      }
    },
    "title": "Screen Selling Platform"
  },
  "userdoc": {
    "methods": {
      "accessItem(uint256)": {
        "notice": "Returns encrypted password of the delivered item Used by: Buyer, (optional) Seller"
      },
      "addItem(string,string,uint256,uint256)": {
        "notice": "Adds an item in the marketplace Used by: Seller"
      },
      "changeName(uint256,string)": {
        "notice": "Updates the name of the item listed in the marketplace Used by: Seller"
      },
      "changePrice(uint256,uint256)": {
        "notice": "Updates the price of the item listed in the marketplace Used by: seller"
      },
      "constructor": "Initialising smart contract to the scenario when no item is present in the marketplace     ",
      "getKey(uint256)": {
        "notice": "Gets public key of the buyer from the item being bought Used by: Seller"
      },
      "giveAccess(uint256,string)": {
        "notice": "Assigns encrypted password to the item which can be only decrypted by the buyer Thus, it simulates delivery of the screen (item) from the seller Item is marked as BOUGHT Used by: Seller"
      },
      "viewActiveListings()": {
        "notice": "Returns the items present in the marketplace, which are ready to be sold Used by: public     "
      }
    },
    "notice": "This contract abstracts the screen selling marketplace and provides functions to perform transactions"
  }
}