{
  "contractName": "Auction",
  "abi": [
    {
      "inputs": [],
      "payable": false,
      "stateMutability": "nonpayable",
      "type": "constructor"
    },
    {
      "constant": false,
      "inputs": [
        {
          "internalType": "string",
          "name": "_item_name",
          "type": "string"
        },
        {
          "internalType": "string",
          "name": "_item_desc",
          "type": "string"
        },
        {
          "internalType": "uint256",
          "name": "_asking_price",
          "type": "uint256"
        },
        {
          "internalType": "uint256",
          "name": "_auction_type",
          "type": "uint256"
        }
      ],
      "name": "addItem",
      "outputs": [
        {
          "internalType": "uint256",
          "name": "",
          "type": "uint256"
        }
      ],
      "payable": false,
      "stateMutability": "nonpayable",
      "type": "function"
    },
    {
      "constant": false,
      "inputs": [
        {
          "internalType": "uint256",
          "name": "item_id",
          "type": "uint256"
        },
        {
          "internalType": "bytes32",
          "name": "hashString",
          "type": "bytes32"
        }
      ],
      "name": "bidItem",
      "outputs": [],
      "payable": false,
      "stateMutability": "nonpayable",
      "type": "function"
    },
    {
      "constant": false,
      "inputs": [
        {
          "internalType": "uint256",
          "name": "item_id",
          "type": "uint256"
        }
      ],
      "name": "closeBid",
      "outputs": [],
      "payable": false,
      "stateMutability": "nonpayable",
      "type": "function"
    },
    {
      "constant": false,
      "inputs": [
        {
          "internalType": "uint256",
          "name": "item_id",
          "type": "uint256"
        },
        {
          "internalType": "string",
          "name": "password",
          "type": "string"
        },
        {
          "internalType": "string",
          "name": "public_key",
          "type": "string"
        }
      ],
      "name": "verifyBid",
      "outputs": [],
      "payable": true,
      "stateMutability": "payable",
      "type": "function"
    },
    {
      "constant": false,
      "inputs": [
        {
          "internalType": "uint256",
          "name": "item_id",
          "type": "uint256"
        }
      ],
      "name": "revealBid",
      "outputs": [],
      "payable": true,
      "stateMutability": "payable",
      "type": "function"
    },
    {
      "constant": true,
      "inputs": [
        {
          "internalType": "uint256",
          "name": "item_id",
          "type": "uint256"
        }
      ],
      "name": "getKey",
      "outputs": [
        {
          "internalType": "string",
          "name": "",
          "type": "string"
        }
      ],
      "payable": false,
      "stateMutability": "view",
      "type": "function"
    },
    {
      "constant": false,
      "inputs": [
        {
          "internalType": "uint256",
          "name": "item_id",
          "type": "uint256"
        },
        {
          "internalType": "string",
          "name": "secret_string",
          "type": "string"
        }
      ],
      "name": "giveAccess",
      "outputs": [],
      "payable": true,
      "stateMutability": "payable",
      "type": "function"
    },
    {
      "constant": true,
      "inputs": [],
      "name": "getBalance",
      "outputs": [
        {
          "internalType": "uint256",
          "name": "",
          "type": "uint256"
        }
      ],
      "payable": false,
      "stateMutability": "view",
      "type": "function"
    },
    {
      "constant": true,
      "inputs": [
        {
          "internalType": "uint256",
          "name": "item_id",
          "type": "uint256"
        }
      ],
      "name": "accessItem",
      "outputs": [
        {
          "internalType": "string",
          "name": "",
          "type": "string"
        }
      ],
      "payable": false,
      "stateMutability": "view",
      "type": "function"
    },
    {
      "constant": false,
      "inputs": [
        {
          "internalType": "uint256",
          "name": "item_id",
          "type": "uint256"
        },
        {
          "internalType": "string",
          "name": "item_name",
          "type": "string"
        }
      ],
      "name": "changeName",
      "outputs": [],
      "payable": false,
      "stateMutability": "nonpayable",
      "type": "function"
    },
    {
      "constant": false,
      "inputs": [
        {
          "internalType": "uint256",
          "name": "item_id",
          "type": "uint256"
        },
        {
          "internalType": "uint256",
          "name": "price",
          "type": "uint256"
        }
      ],
      "name": "changePrice",
      "outputs": [],
      "payable": false,
      "stateMutability": "nonpayable",
      "type": "function"
    },
    {
      "constant": true,
      "inputs": [],
      "name": "viewActiveListings",
      "outputs": [
        {
          "internalType": "string",
          "name": "",
          "type": "string"
        }
      ],
      "payable": false,
      "stateMutability": "view",
      "type": "function"
    },
    {
      "constant": true,
      "inputs": [
        {
          "internalType": "address",
          "name": "seller_id",
          "type": "address"
        }
      ],
      "name": "viewSellerListings",
      "outputs": [
        {
          "internalType": "string",
          "name": "",
          "type": "string"
        }
      ],
      "payable": false,
      "stateMutability": "view",
      "type": "function"
    }
  ],
  "bytecode": "0x608060405234801561001057600080fd5b50600080819055506150c6806100276000396000f3fe6080604052600436106100c25760003560e01c80639e5406cf1161007f578063bdbd0ad711610059578063bdbd0ad7146105c3578063c39cbef11461068d578063dc8cbd2c1461075f578063f6a89810146108e6576100c2565b80639e5406cf1461043a578063b3de019c146104ca578063bb5b27e11461050f576100c2565b80630468d2c6146100c757806305d2dd9c1461010c57806312065fe014610268578063321a8fa5146102935780633e3b903e146103585780635f099c1114610386575b600080fd5b3480156100d357600080fd5b5061010a600480360360408110156100ea57600080fd5b810190808035906020019092919080359060200190929190505050610921565b005b6102666004803603606081101561012257600080fd5b81019080803590602001909291908035906020019064010000000081111561014957600080fd5b82018360208201111561015b57600080fd5b8035906020019184600183028401116401000000008311171561017d57600080fd5b91908080601f016020809104026020016040519081016040528093929190818152602001838380828437600081840152601f19601f820116905080830192505050505050509192919290803590602001906401000000008111156101e057600080fd5b8201836020820111156101f257600080fd5b8035906020019184600183028401116401000000008311171561021457600080fd5b91908080601f016020809104026020016040519081016040528093929190818152602001838380828437600081840152601f19601f820116905080830192505050505050509192919290505050610a97565b005b34801561027457600080fd5b5061027d611032565b6040518082815260200191505060405180910390f35b610356600480360360408110156102a957600080fd5b8101908080359060200190929190803590602001906401000000008111156102d057600080fd5b8201836020820111156102e257600080fd5b8035906020019184600183028401116401000000008311171561030457600080fd5b91908080601f016020809104026020016040519081016040528093929190818152602001838380828437600081840152601f19601f82011690508083019250505050505050919291929050505061103a565b005b6103846004803603602081101561036e57600080fd5b8101908080359060200190929190505050611349565b005b34801561039257600080fd5b506103bf600480360360208110156103a957600080fd5b8101908080359060200190929190505050611cda565b6040518080602001828103825283818151815260200191508051906020019080838360005b838110156103ff5780820151818401526020810190506103e4565b50505050905090810190601f16801561042c5780820380516001836020036101000a031916815260200191505b509250505060405180910390f35b34801561044657600080fd5b5061044f611f85565b6040518080602001828103825283818151815260200191508051906020019080838360005b8381101561048f578082015181840152602081019050610474565b50505050905090810190601f1680156104bc5780820380516001836020036101000a031916815260200191505b509250505060405180910390f35b3480156104d657600080fd5b5061050d600480360360408110156104ed57600080fd5b810190808035906020019092919080359060200190929190505050612da5565b005b34801561051b57600080fd5b506105486004803603602081101561053257600080fd5b810190808035906020019092919050505061303f565b6040518080602001828103825283818151815260200191508051906020019080838360005b8381101561058857808201518184015260208101905061056d565b50505050905090810190601f1680156105b55780820380516001836020036101000a031916815260200191505b509250505060405180910390f35b3480156105cf57600080fd5b50610612600480360360208110156105e657600080fd5b81019080803573ffffffffffffffffffffffffffffffffffffffff169060200190929190505050613306565b6040518080602001828103825283818151815260200191508051906020019080838360005b83811015610652578082015181840152602081019050610637565b50505050905090810190601f16801561067f5780820380516001836020036101000a031916815260200191505b509250505060405180910390f35b34801561069957600080fd5b5061075d600480360360408110156106b057600080fd5b8101908080359060200190929190803590602001906401000000008111156106d757600080fd5b8201836020820111156106e957600080fd5b8035906020019184600183028401116401000000008311171561070b57600080fd5b91908080601f016020809104026020016040519081016040528093929190818152602001838380828437600081840152601f19601f8201169050808301925050505050505091929192905050506140c8565b005b34801561076b57600080fd5b506108d06004803603608081101561078257600080fd5b810190808035906020019064010000000081111561079f57600080fd5b8201836020820111156107b157600080fd5b803590602001918460018302840111640100000000831117156107d357600080fd5b91908080601f016020809104026020016040519081016040528093929190818152602001838380828437600081840152601f19601f8201169050808301925050505050505091929192908035906020019064010000000081111561083657600080fd5b82018360208201111561084857600080fd5b8035906020019184600183028401116401000000008311171561086a57600080fd5b91908080601f016020809104026020016040519081016040528093929190818152602001838380828437600081840152601f19601f8201169050808301925050505050505091929192908035906020019092919080359060200190929190505050614372565b6040518082815260200191505060405180910390f35b3480156108f257600080fd5b5061091f6004803603602081101561090957600080fd5b810190808035906020019092919050505061464e565b005b60005482111580156109335750600082115b6109a5576040517f08c379a00000000000000000000000000000000000000000000000000000000081526004018080602001828103825260188152602001807f4974656d206e6f742070726573656e7420696e206c697374000000000000000081525060200191505060405180910390fd5b600060028111156109b257fe5b60016000848152602001908152602001600020600b0160009054906101000a900460ff1660028111156109e157fe5b14610a54576040517f08c379a00000000000000000000000000000000000000000000000000000000081526004018080602001828103825260138152602001807f41756374696f6e206e6f74206f6e676f696e670000000000000000000000000081525060200191505060405180910390fd5b6001806000848152602001908152602001600020600601600083815260200190815260200160002060006101000a81548160ff0219169083151502179055505050565b6000548311158015610aa95750600083115b610b1b576040517f08c379a00000000000000000000000000000000000000000000000000000000081526004018080602001828103825260188152602001807f4974656d206e6f742070726573656e7420696e206c697374000000000000000081525060200191505060405180910390fd5b60016002811115610b2857fe5b60016000858152602001908152602001600020600b0160009054906101000a900460ff166002811115610b5757fe5b14610bca576040517f08c379a00000000000000000000000000000000000000000000000000000000081526004018080602001828103825260208152602001807f42696420766572696669636174696f6e206e6f7420696e2070726f677265737381525060200191505060405180910390fd5b600380811115610bd657fe5b60016000858152602001908152602001600020600b0160019054906101000a900460ff166003811115610c0557fe5b1415610de5576001600084815260200190815260200160002060040154341415610d725734600160008581526020019081526020016000206005018190555060405180606001604052803373ffffffffffffffffffffffffffffffffffffffff168152602001348152602001828152506001600085815260200190815260200160002060080160008201518160000160006101000a81548173ffffffffffffffffffffffffffffffffffffffff021916908373ffffffffffffffffffffffffffffffffffffffff160217905550602082015181600101556040820151816002019080519060200190610cf8929190614f12565b5090505060026001600085815260200190815260200160002060000160146101000a81548160ff02191690836003811115610d2f57fe5b021790555060026001600080548152602001908152602001600020600b0160006101000a81548160ff02191690836002811115610d6857fe5b0217905550610de0565b6040517f08c379a000000000000000000000000000000000000000000000000000000000815260040180806020018281038252600d8152602001807f496e76616c69642050726963650000000000000000000000000000000000000081525060200191505060405180910390fd5b61102d565b6000338334604051602001808473ffffffffffffffffffffffffffffffffffffffff1673ffffffffffffffffffffffffffffffffffffffff1660601b815260140183805190602001908083835b60208310610e555780518252602082019150602081019050602083039250610e32565b6001836020036101000a03801982511681845116808217855250505050505090500182815260200193505050506040516020818303038152906040528051906020012090506001151560016000868152602001908152602001600020600601600083815260200190815260200160002060009054906101000a900460ff16151514610f48576040517f08c379a000000000000000000000000000000000000000000000000000000000815260040180806020018281038252600f8152602001807f496e76616c69642064657461696c73000000000000000000000000000000000081525060200191505060405180910390fd5b6001600085815260200190815260200160002060070160405180606001604052803373ffffffffffffffffffffffffffffffffffffffff168152602001348152602001848152509080600181540180825580915050906001820390600052602060002090600302016000909192909190915060008201518160000160006101000a81548173ffffffffffffffffffffffffffffffffffffffff021916908373ffffffffffffffffffffffffffffffffffffffff160217905550602082015181600101556040820151816002019080519060200190611027929190614f12565b50505050505b505050565b600047905090565b81600054811115801561104d5750600081115b6110bf576040517f08c379a00000000000000000000000000000000000000000000000000000000081526004018080602001828103825260188152602001807f4974656d206e6f742070726573656e7420696e206c697374000000000000000081525060200191505060405180910390fd5b6001600082815260200190815260200160002060000160009054906101000a900473ffffffffffffffffffffffffffffffffffffffff1673ffffffffffffffffffffffffffffffffffffffff163373ffffffffffffffffffffffffffffffffffffffff1614611196576040517f08c379a000000000000000000000000000000000000000000000000000000000815260040180806020018281038252601a8152602001807f596f7520617265206e6f742073656c6c6572206f66206974656d00000000000081525060200191505060405180910390fd5b600260038111156111a357fe5b6001600085815260200190815260200160002060000160149054906101000a900460ff1660038111156111d257fe5b14611245576040517f08c379a00000000000000000000000000000000000000000000000000000000081526004018080602001828103825260168152602001807f4974656d206e6f7420707572636861736564207965740000000000000000000081525060200191505060405180910390fd5b8160016000858152602001908152602001600020600301908051906020019061126f929190614f92565b5060036001600085815260200190815260200160002060000160146101000a81548160ff021916908360038111156112a357fe5b02179055506001600084815260200190815260200160002060000160009054906101000a900473ffffffffffffffffffffffffffffffffffffffff1673ffffffffffffffffffffffffffffffffffffffff166108fc60016000868152602001908152602001600020600501549081150290604051600060405180830381858888f1935050505015801561133a573d6000803e3d6000fd5b50611344836148c8565b505050565b80600054811115801561135c5750600081115b6113ce576040517f08c379a00000000000000000000000000000000000000000000000000000000081526004018080602001828103825260188152602001807f4974656d206e6f742070726573656e7420696e206c697374000000000000000081525060200191505060405180910390fd5b6001600082815260200190815260200160002060000160009054906101000a900473ffffffffffffffffffffffffffffffffffffffff1673ffffffffffffffffffffffffffffffffffffffff163373ffffffffffffffffffffffffffffffffffffffff16146114a5576040517f08c379a000000000000000000000000000000000000000000000000000000000815260040180806020018281038252601a8152602001807f596f7520617265206e6f742073656c6c6572206f66206974656d00000000000081525060200191505060405180910390fd5b60005482111580156114b75750600082115b611529576040517f08c379a00000000000000000000000000000000000000000000000000000000081526004018080602001828103825260188152602001807f4974656d206e6f742070726573656e7420696e206c697374000000000000000081525060200191505060405180910390fd5b6001600281111561153657fe5b60016000848152602001908152602001600020600b0160009054906101000a900460ff16600281111561156557fe5b146115d8576040517f08c379a00000000000000000000000000000000000000000000000000000000081526004018080602001828103825260208152602001807f42696420766572696669636174696f6e206e6f7420696e2070726f677265737381525060200191505060405180910390fd5b60008090506115e5615012565b6000809050600080905060008090505b60016000888152602001908152602001600020600701805490508110156117be57600060016000898152602001908152602001600020600701828154811061163957fe5b90600052602060002090600302016001015490508083019250858111156117a35785935080955060016000898152602001908152602001600020600701828154811061168157fe5b90600052602060002090600302016040518060600160405290816000820160009054906101000a900473ffffffffffffffffffffffffffffffffffffffff1673ffffffffffffffffffffffffffffffffffffffff1673ffffffffffffffffffffffffffffffffffffffff16815260200160018201548152602001600282018054600181600116156101000203166002900480601f0160208091040260200160405190810160405280929190818152602001828054600181600116156101000203166002900480156117935780601f1061176857610100808354040283529160200191611793565b820191906000526020600020905b81548152906001019060200180831161177657829003601f168201915b50505050508152505094506117b0565b838111156117af578093505b5b5080806001019150506115f5565b50600060038111156117cc57fe5b60016000888152602001908152602001600020600b0160019054906101000a900460ff1660038111156117fb57fe5b14156118a957826001600088815260200190815260200160002060080160008201518160000160006101000a81548173ffffffffffffffffffffffffffffffffffffffff021916908373ffffffffffffffffffffffffffffffffffffffff160217905550602082015181600101556040820151816002019080519060200190611885929190614f12565b50905050836001600088815260200190815260200160002060050181905550611c58565b600160038111156118b657fe5b60016000888152602001908152602001600020600b0160019054906101000a900460ff1660038111156118e557fe5b141561199357826001600088815260200190815260200160002060080160008201518160000160006101000a81548173ffffffffffffffffffffffffffffffffffffffff021916908373ffffffffffffffffffffffffffffffffffffffff16021790555060208201518160010155604082015181600201908051906020019061196f929190614f12565b50905050816001600088815260200190815260200160002060050181905550611c57565b600260038111156119a057fe5b60016000888152602001908152602001600020600b0160019054906101000a900460ff1660038111156119cf57fe5b1415611c555760008090506119e2615012565b6000600160008a815260200190815260200160002060070180549050905060008090505b81811015611c4c57600082600160008d81526020019081526020016000206007018381548110611a3257fe5b90600052602060002090600302016001015402905084611a528288614982565b1015611b9757600160008c81526020019081526020016000206007018281548110611a7957fe5b90600052602060002090600302016040518060600160405290816000820160009054906101000a900473ffffffffffffffffffffffffffffffffffffffff1673ffffffffffffffffffffffffffffffffffffffff1673ffffffffffffffffffffffffffffffffffffffff16815260200160018201548152602001600282018054600181600116156101000203166002900480601f016020809104026020016040519081016040528092919081815260200182805460018160011615610100020316600290048015611b8b5780601f10611b6057610100808354040283529160200191611b8b565b820191906000526020600020905b815481529060010190602001808311611b6e57829003601f168201915b50505050508152505093505b83600160008d815260200190815260200160002060080160008201518160000160006101000a81548173ffffffffffffffffffffffffffffffffffffffff021916908373ffffffffffffffffffffffffffffffffffffffff160217905550602082015181600101556040820151816002019080519060200190611c1b929190614f12565b509050508360200151600160008d815260200190815260200160002060050181905550508080600101915050611a06565b50505050611c56565b5b5b5b60026001600088815260200190815260200160002060000160146101000a81548160ff02191690836003811115611c8b57fe5b021790555060026001600080548152602001908152602001600020600b0160006101000a81548160ff02191690836002811115611cc457fe5b0217905550611cd2866149a1565b505050505050565b6060816000548111158015611cef5750600081115b611d61576040517f08c379a00000000000000000000000000000000000000000000000000000000081526004018080602001828103825260188152602001807f4974656d206e6f742070726573656e7420696e206c697374000000000000000081525060200191505060405180910390fd5b6001600082815260200190815260200160002060000160009054906101000a900473ffffffffffffffffffffffffffffffffffffffff1673ffffffffffffffffffffffffffffffffffffffff163373ffffffffffffffffffffffffffffffffffffffff161480611e7957506001600082815260200190815260200160002060080160000160009054906101000a900473ffffffffffffffffffffffffffffffffffffffff1673ffffffffffffffffffffffffffffffffffffffff163373ffffffffffffffffffffffffffffffffffffffff16148015611e785750600380811115611e4757fe5b6001600083815260200190815260200160002060000160149054906101000a900460ff166003811115611e7657fe5b145b5b611ece576040517f08c379a000000000000000000000000000000000000000000000000000000000815260040180806020018281038252602381526020018061506f6023913960400191505060405180910390fd5b600160008481526020019081526020016000206003018054600181600116156101000203166002900480601f016020809104026020016040519081016040528092919081815260200182805460018160011615610100020316600290048015611f785780601f10611f4d57610100808354040283529160200191611f78565b820191906000526020600020905b815481529060010190602001808311611f5b57829003601f168201915b5050505050915050919050565b6060806040518060400160405280600181526020017f5b0000000000000000000000000000000000000000000000000000000000000081525090506000600190505b6000548111612d085760006002811115611fdd57fe5b60016000838152602001908152602001600020600b0160009054906101000a900460ff16600281111561200c57fe5b148061209557506001600281111561202057fe5b60016000838152602001908152602001600020600b0160009054906101000a900460ff16600281111561204f57fe5b148015612094575060038081111561206357fe5b60016000838152602001908152602001600020600b0160019054906101000a900460ff16600381111561209257fe5b145b5b15612cfb576000809050600160038111156120ac57fe5b60016000848152602001908152602001600020600b0160019054906101000a900460ff1660038111156120db57fe5b14156120ea576001905061217d565b600260038111156120f757fe5b60016000848152602001908152602001600020600b0160019054906101000a900460ff16600381111561212657fe5b1415612135576002905061217c565b60038081111561214157fe5b60016000848152602001908152602001600020600b0160019054906101000a900460ff16600381111561217057fe5b141561217b57600390505b5b5b60008090506001600281111561218f57fe5b60016000858152602001908152602001600020600b0160009054906101000a900460ff1660028111156121be57fe5b14156121cd5760019050612214565b6002808111156121d957fe5b60016000858152602001908152602001600020600b0160009054906101000a900460ff16600281111561220857fe5b141561221357600290505b5b836040516020018082805190602001908083835b6020831061224b5780518252602082019150602081019050602083039250612228565b6001836020036101000a038019825116818451168082178552505050505050905001807f7b276974656d2d6964273a000000000000000000000000000000000000000000815250600b019150506040516020818303038152906040529350836122b384614b6f565b6040516020018083805190602001908083835b602083106122e957805182526020820191506020810190506020830392506122c6565b6001836020036101000a03801982511681845116808217855250505050505090500182805190602001908083835b6020831061233a5780518252602082019150602081019050602083039250612317565b6001836020036101000a038019825116818451168082178552505050505050905001925050506040516020818303038152906040529350836040516020018082805190602001908083835b602083106123a85780518252602082019150602081019050602083039250612385565b6001836020036101000a038019825116818451168082178552505050505050905001807f2c276974656d2d6e616d65273a27000000000000000000000000000000000000815250600e01915050604051602081830303815290604052935083600160008581526020019081526020016000206001016040516020018083805190602001908083835b602083106124535780518252602082019150602081019050602083039250612430565b6001836020036101000a038019825116818451168082178552505050505050905001828054600181600116156101000203166002900480156124cc5780601f106124aa5761010080835404028352918201916124cc565b820191906000526020600020905b8154815290600101906020018083116124b8575b5050925050506040516020818303038152906040529350836040516020018082805190602001908083835b6020831061251a57805182526020820191506020810190506020830392506124f7565b6001836020036101000a038019825116818451168082178552505050505050905001807f272c276974656d2d6465736372697074696f6e273a2027000000000000000000815250601701915050604051602081830303815290604052935083600160008581526020019081526020016000206002016040516020018083805190602001908083835b602083106125c557805182526020820191506020810190506020830392506125a2565b6001836020036101000a0380198251168184511680821785525050505050509050018280546001816001161561010002031660029004801561263e5780601f1061261c57610100808354040283529182019161263e565b820191906000526020600020905b81548152906001019060200180831161262a575b5050925050506040516020818303038152906040529350836040516020018082805190602001908083835b6020831061268c5780518252602082019150602081019050602083039250612669565b6001836020036101000a038019825116818451168082178552505050505050905001807f272c2761736b696e672d7072696365273a00000000000000000000000000000081525060110191505060405160208183030381529060405293508361270a6001600086815260200190815260200160002060040154614b6f565b6040516020018083805190602001908083835b60208310612740578051825260208201915060208101905060208303925061271d565b6001836020036101000a03801982511681845116808217855250505050505090500182805190602001908083835b60208310612791578051825260208201915060208101905060208303925061276e565b6001836020036101000a038019825116818451168082178552505050505050905001925050506040516020818303038152906040529350836040516020018082805190602001908083835b602083106127ff57805182526020820191506020810190506020830392506127dc565b6001836020036101000a038019825116818451168082178552505050505050905001807f2c2761756374696f6e2d74797065273a0000000000000000000000000000000081525060100191505060405160208183030381529060405293508361286783614b6f565b6040516020018083805190602001908083835b6020831061289d578051825260208201915060208101905060208303925061287a565b6001836020036101000a03801982511681845116808217855250505050505090500182805190602001908083835b602083106128ee57805182526020820191506020810190506020830392506128cb565b6001836020036101000a038019825116818451168082178552505050505050905001925050506040516020818303038152906040529350836040516020018082805190602001908083835b6020831061295c5780518252602082019150602081019050602083039250612939565b6001836020036101000a038019825116818451168082178552505050505050905001807f2c2761756374696f6e2d737461747573273a00000000000000000000000000008152506012019150506040516020818303038152906040529350836129c482614b6f565b6040516020018083805190602001908083835b602083106129fa57805182526020820191506020810190506020830392506129d7565b6001836020036101000a03801982511681845116808217855250505050505090500182805190602001908083835b60208310612a4b5780518252602082019150602081019050602083039250612a28565b6001836020036101000a038019825116818451168082178552505050505050905001925050506040516020818303038152906040529350836040516020018082805190602001908083835b60208310612ab95780518252602082019150602081019050602083039250612a96565b6001836020036101000a038019825116818451168082178552505050505050905001807f2c2773656c6c65722d6964273a20270000000000000000000000000000000000815250600f01915050604051602081830303815290604052935083612ba56001600086815260200190815260200160002060000160009054906101000a900473ffffffffffffffffffffffffffffffffffffffff16604051602001808273ffffffffffffffffffffffffffffffffffffffff1673ffffffffffffffffffffffffffffffffffffffff1660601b8152601401915050604051602081830303815290604052614ca3565b6040516020018083805190602001908083835b60208310612bdb5780518252602082019150602081019050602083039250612bb8565b6001836020036101000a03801982511681845116808217855250505050505090500182805190602001908083835b60208310612c2c5780518252602082019150602081019050602083039250612c09565b6001836020036101000a038019825116818451168082178552505050505050905001925050506040516020818303038152906040529350836040516020018082805190602001908083835b60208310612c9a5780518252602082019150602081019050602083039250612c77565b6001836020036101000a038019825116818451168082178552505050505050905001807f277d2c0000000000000000000000000000000000000000000000000000000000815250600301915050604051602081830303815290604052935050505b8080600101915050611fc7565b50806040516020018082805190602001908083835b60208310612d405780518252602082019150602081019050602083039250612d1d565b6001836020036101000a038019825116818451168082178552505050505050905001807f5d0000000000000000000000000000000000000000000000000000000000000081525060010191505060405160208183030381529060405290508091505090565b816000548111158015612db85750600081115b612e2a576040517f08c379a00000000000000000000000000000000000000000000000000000000081526004018080602001828103825260188152602001807f4974656d206e6f742070726573656e7420696e206c697374000000000000000081525060200191505060405180910390fd5b6001600082815260200190815260200160002060000160009054906101000a900473ffffffffffffffffffffffffffffffffffffffff1673ffffffffffffffffffffffffffffffffffffffff163373ffffffffffffffffffffffffffffffffffffffff1614612f01576040517f08c379a000000000000000000000000000000000000000000000000000000000815260040180806020018281038252601a8152602001807f596f7520617265206e6f742073656c6c6572206f66206974656d00000000000081525060200191505060405180910390fd5b60016003811115612f0e57fe5b6001600085815260200190815260200160002060000160149054906101000a900460ff166003811115612f3d57fe5b14612fb0576040517f08c379a00000000000000000000000000000000000000000000000000000000081526004018080602001828103825260148152602001807f4974656d20697320616c726561647920736f6c6400000000000000000000000081525060200191505060405180910390fd5b60006001600085815260200190815260200160002060000160146101000a81548160ff02191690836003811115612fe357fe5b0217905550816001600085815260200190815260200160002060040181905550600180600085815260200190815260200160002060000160146101000a81548160ff0219169083600381111561303557fe5b0217905550505050565b60608160005481111580156130545750600081115b6130c6576040517f08c379a00000000000000000000000000000000000000000000000000000000081526004018080602001828103825260188152602001807f4974656d206e6f742070726573656e7420696e206c697374000000000000000081525060200191505060405180910390fd5b6001600082815260200190815260200160002060000160009054906101000a900473ffffffffffffffffffffffffffffffffffffffff1673ffffffffffffffffffffffffffffffffffffffff163373ffffffffffffffffffffffffffffffffffffffff161461319d576040517f08c379a000000000000000000000000000000000000000000000000000000000815260040180806020018281038252601a8152602001807f596f7520617265206e6f742073656c6c6572206f66206974656d00000000000081525060200191505060405180910390fd5b600260038111156131aa57fe5b6001600085815260200190815260200160002060000160149054906101000a900460ff1660038111156131d957fe5b1461324c576040517f08c379a00000000000000000000000000000000000000000000000000000000081526004018080602001828103825260118152602001807f4b4559204e4f5420415641494c41424c4500000000000000000000000000000081525060200191505060405180910390fd5b600160008481526020019081526020016000206008016002018054600181600116156101000203166002900480601f0160208091040260200160405190810160405280929190818152602001828054600181600116156101000203166002900480156132f95780601f106132ce576101008083540402835291602001916132f9565b820191906000526020600020905b8154815290600101906020018083116132dc57829003601f168201915b5050505050915050919050565b6060806040518060400160405280600181526020017f5b0000000000000000000000000000000000000000000000000000000000000081525090506000600190505b6000548111614029578373ffffffffffffffffffffffffffffffffffffffff166001600083815260200190815260200160002060000160009054906101000a900473ffffffffffffffffffffffffffffffffffffffff1673ffffffffffffffffffffffffffffffffffffffff16141561401c576000809050600160038111156133cd57fe5b60016000848152602001908152602001600020600b0160019054906101000a900460ff1660038111156133fc57fe5b141561340b576001905061349e565b6002600381111561341857fe5b60016000848152602001908152602001600020600b0160019054906101000a900460ff16600381111561344757fe5b1415613456576002905061349d565b60038081111561346257fe5b60016000848152602001908152602001600020600b0160019054906101000a900460ff16600381111561349157fe5b141561349c57600390505b5b5b6000809050600160028111156134b057fe5b60016000858152602001908152602001600020600b0160009054906101000a900460ff1660028111156134df57fe5b14156134ee5760019050613535565b6002808111156134fa57fe5b60016000858152602001908152602001600020600b0160009054906101000a900460ff16600281111561352957fe5b141561353457600290505b5b836040516020018082805190602001908083835b6020831061356c5780518252602082019150602081019050602083039250613549565b6001836020036101000a038019825116818451168082178552505050505050905001807f7b276974656d2d6964273a000000000000000000000000000000000000000000815250600b019150506040516020818303038152906040529350836135d484614b6f565b6040516020018083805190602001908083835b6020831061360a57805182526020820191506020810190506020830392506135e7565b6001836020036101000a03801982511681845116808217855250505050505090500182805190602001908083835b6020831061365b5780518252602082019150602081019050602083039250613638565b6001836020036101000a038019825116818451168082178552505050505050905001925050506040516020818303038152906040529350836040516020018082805190602001908083835b602083106136c957805182526020820191506020810190506020830392506136a6565b6001836020036101000a038019825116818451168082178552505050505050905001807f2c276974656d2d6e616d65273a27000000000000000000000000000000000000815250600e01915050604051602081830303815290604052935083600160008581526020019081526020016000206001016040516020018083805190602001908083835b602083106137745780518252602082019150602081019050602083039250613751565b6001836020036101000a038019825116818451168082178552505050505050905001828054600181600116156101000203166002900480156137ed5780601f106137cb5761010080835404028352918201916137ed565b820191906000526020600020905b8154815290600101906020018083116137d9575b5050925050506040516020818303038152906040529350836040516020018082805190602001908083835b6020831061383b5780518252602082019150602081019050602083039250613818565b6001836020036101000a038019825116818451168082178552505050505050905001807f272c276974656d2d6465736372697074696f6e273a2027000000000000000000815250601701915050604051602081830303815290604052935083600160008581526020019081526020016000206002016040516020018083805190602001908083835b602083106138e657805182526020820191506020810190506020830392506138c3565b6001836020036101000a0380198251168184511680821785525050505050509050018280546001816001161561010002031660029004801561395f5780601f1061393d57610100808354040283529182019161395f565b820191906000526020600020905b81548152906001019060200180831161394b575b5050925050506040516020818303038152906040529350836040516020018082805190602001908083835b602083106139ad578051825260208201915060208101905060208303925061398a565b6001836020036101000a038019825116818451168082178552505050505050905001807f272c2761736b696e672d7072696365273a000000000000000000000000000000815250601101915050604051602081830303815290604052935083613a2b6001600086815260200190815260200160002060040154614b6f565b6040516020018083805190602001908083835b60208310613a615780518252602082019150602081019050602083039250613a3e565b6001836020036101000a03801982511681845116808217855250505050505090500182805190602001908083835b60208310613ab25780518252602082019150602081019050602083039250613a8f565b6001836020036101000a038019825116818451168082178552505050505050905001925050506040516020818303038152906040529350836040516020018082805190602001908083835b60208310613b205780518252602082019150602081019050602083039250613afd565b6001836020036101000a038019825116818451168082178552505050505050905001807f2c2761756374696f6e2d74797065273a00000000000000000000000000000000815250601001915050604051602081830303815290604052935083613b8883614b6f565b6040516020018083805190602001908083835b60208310613bbe5780518252602082019150602081019050602083039250613b9b565b6001836020036101000a03801982511681845116808217855250505050505090500182805190602001908083835b60208310613c0f5780518252602082019150602081019050602083039250613bec565b6001836020036101000a038019825116818451168082178552505050505050905001925050506040516020818303038152906040529350836040516020018082805190602001908083835b60208310613c7d5780518252602082019150602081019050602083039250613c5a565b6001836020036101000a038019825116818451168082178552505050505050905001807f2c2761756374696f6e2d737461747573273a0000000000000000000000000000815250601201915050604051602081830303815290604052935083613ce582614b6f565b6040516020018083805190602001908083835b60208310613d1b5780518252602082019150602081019050602083039250613cf8565b6001836020036101000a03801982511681845116808217855250505050505090500182805190602001908083835b60208310613d6c5780518252602082019150602081019050602083039250613d49565b6001836020036101000a038019825116818451168082178552505050505050905001925050506040516020818303038152906040529350836040516020018082805190602001908083835b60208310613dda5780518252602082019150602081019050602083039250613db7565b6001836020036101000a038019825116818451168082178552505050505050905001807f2c2773656c6c65722d6964273a20270000000000000000000000000000000000815250600f01915050604051602081830303815290604052935083613ec66001600086815260200190815260200160002060000160009054906101000a900473ffffffffffffffffffffffffffffffffffffffff16604051602001808273ffffffffffffffffffffffffffffffffffffffff1673ffffffffffffffffffffffffffffffffffffffff1660601b8152601401915050604051602081830303815290604052614ca3565b6040516020018083805190602001908083835b60208310613efc5780518252602082019150602081019050602083039250613ed9565b6001836020036101000a03801982511681845116808217855250505050505090500182805190602001908083835b60208310613f4d5780518252602082019150602081019050602083039250613f2a565b6001836020036101000a038019825116818451168082178552505050505050905001925050506040516020818303038152906040529350836040516020018082805190602001908083835b60208310613fbb5780518252602082019150602081019050602083039250613f98565b6001836020036101000a038019825116818451168082178552505050505050905001807f277d2c0000000000000000000000000000000000000000000000000000000000815250600301915050604051602081830303815290604052935050505b8080600101915050613348565b50806040516020018082805190602001908083835b60208310614061578051825260208201915060208101905060208303925061403e565b6001836020036101000a038019825116818451168082178552505050505050905001807f5d00000000000000000000000000000000000000000000000000000000000000815250600101915050604051602081830303815290604052905080915050919050565b8160005481111580156140db5750600081115b61414d576040517f08c379a00000000000000000000000000000000000000000000000000000000081526004018080602001828103825260188152602001807f4974656d206e6f742070726573656e7420696e206c697374000000000000000081525060200191505060405180910390fd5b6001600082815260200190815260200160002060000160009054906101000a900473ffffffffffffffffffffffffffffffffffffffff1673ffffffffffffffffffffffffffffffffffffffff163373ffffffffffffffffffffffffffffffffffffffff1614614224576040517f08c379a000000000000000000000000000000000000000000000000000000000815260040180806020018281038252601a8152602001807f596f7520617265206e6f742073656c6c6572206f66206974656d00000000000081525060200191505060405180910390fd5b6001600381111561423157fe5b6001600085815260200190815260200160002060000160149054906101000a900460ff16600381111561426057fe5b146142d3576040517f08c379a00000000000000000000000000000000000000000000000000000000081526004018080602001828103825260148152602001807f4974656d20697320616c726561647920736f6c6400000000000000000000000081525060200191505060405180910390fd5b60006001600085815260200190815260200160002060000160146101000a81548160ff0219169083600381111561430657fe5b021790555081600160008581526020019081526020016000206001019080519060200190614335929190614f92565b50600180600085815260200190815260200160002060000160146101000a81548160ff0219169083600381111561436857fe5b0217905550505050565b600080600081548092919060010191905055506000600160008054815260200190815260200160002060000160146101000a81548160ff021916908360038111156143b957fe5b021790555083600160008054815260200190815260200160002060020190805190602001906143e9929190614f92565b5033600160008054815260200190815260200160002060000160006101000a81548173ffffffffffffffffffffffffffffffffffffffff021916908373ffffffffffffffffffffffffffffffffffffffff160217905550846001600080548152602001908152602001600020600101908051906020019061446b929190614f92565b508260016000805481526020019081526020016000206004018190555060018060008054815260200190815260200160002060000160146101000a81548160ff021916908360038111156144bb57fe5b021790555060006001600080548152602001908152602001600020600b0160006101000a81548160ff021916908360028111156144f457fe5b021790555060008214156145405760006001600080548152602001908152602001600020600b0160016101000a81548160ff0219169083600381111561453657fe5b0217905550614641565b600182141561458657600180600080548152602001908152602001600020600b0160016101000a81548160ff0219169083600381111561457c57fe5b0217905550614640565b60028214156145cd5760026001600080548152602001908152602001600020600b0160016101000a81548160ff021916908360038111156145c357fe5b021790555061463f565b600180600080548152602001908152602001600020600b0160006101000a81548160ff0219169083600281111561460057fe5b021790555060036001600080548152602001908152602001600020600b0160016101000a81548160ff0219169083600381111561463957fe5b02179055505b5b5b6000549050949350505050565b6001600082815260200190815260200160002060000160009054906101000a900473ffffffffffffffffffffffffffffffffffffffff1673ffffffffffffffffffffffffffffffffffffffff163373ffffffffffffffffffffffffffffffffffffffff1614806146e957503073ffffffffffffffffffffffffffffffffffffffff163373ffffffffffffffffffffffffffffffffffffffff16145b61475b576040517f08c379a000000000000000000000000000000000000000000000000000000000815260040180806020018281038252600d8152602001807f4163636573732064656e6965640000000000000000000000000000000000000081525060200191505060405180910390fd5b600054811115801561476d5750600081115b6147df576040517f08c379a00000000000000000000000000000000000000000000000000000000081526004018080602001828103825260188152602001807f4974656d206e6f742070726573656e7420696e206c697374000000000000000081525060200191505060405180910390fd5b600060028111156147ec57fe5b60016000838152602001908152602001600020600b0160009054906101000a900460ff16600281111561481b57fe5b1461488e576040517f08c379a00000000000000000000000000000000000000000000000000000000081526004018080602001828103825260138152602001807f41756374696f6e206e6f74206f6e676f696e670000000000000000000000000081525060200191505060405180910390fd5b6001806000838152602001908152602001600020600b0160006101000a81548160ff021916908360028111156148c057fe5b021790555050565b6000600160008381526020019081526020016000206005015460016000848152602001908152602001600020600801600101540390506001600083815260200190815260200160002060080160000160009054906101000a900473ffffffffffffffffffffffffffffffffffffffff1673ffffffffffffffffffffffffffffffffffffffff166108fc829081150290604051600060405180830381858888f1935050505015801561497d573d6000803e3d6000fd5b505050565b600081831061499557818303905061499b565b82820390505b92915050565b60008090505b6001600083815260200190815260200160002060070180549050811015614b6b576001600083815260200190815260200160002060080160000160009054906101000a900473ffffffffffffffffffffffffffffffffffffffff1673ffffffffffffffffffffffffffffffffffffffff16600160008481526020019081526020016000206007018281548110614a3957fe5b906000526020600020906003020160000160009054906101000a900473ffffffffffffffffffffffffffffffffffffffff1673ffffffffffffffffffffffffffffffffffffffff161415614a8c57614b5e565b6000600160008481526020019081526020016000206007018281548110614aaf57fe5b9060005260206000209060030201600101549050600160008481526020019081526020016000206007018281548110614ae457fe5b906000526020600020906003020160000160009054906101000a900473ffffffffffffffffffffffffffffffffffffffff1673ffffffffffffffffffffffffffffffffffffffff166108fc829081150290604051600060405180830381858888f19350505050158015614b5b573d6000803e3d6000fd5b50505b80806001019150506149a7565b5050565b606060008290506000811415614bbd576040518060400160405280600181526020017f3000000000000000000000000000000000000000000000000000000000000000815250915050614c9e565b600081905060005b60008214614be7578080600101915050600a8281614bdf57fe5b049150614bc5565b6060816040519080825280601f01601f191660200182016040528015614c1c5781602001600182028038833980820191505090505b50905060006001830390505b60008514614c9557600a8581614c3a57fe5b0660300160f81b82828060019003935081518110614c5457fe5b60200101907effffffffffffffffffffffffffffffffffffffffffffffffffffffffffffff1916908160001a905350600a8581614c8d57fe5b049450614c28565b81955050505050505b919050565b6060806040518060400160405280601081526020017f30313233343536373839616263646566000000000000000000000000000000008152509050606060028451026002016040519080825280601f01601f191660200182016040528015614d1a5781602001600182028038833980820191505090505b5090507f300000000000000000000000000000000000000000000000000000000000000081600081518110614d4b57fe5b60200101907effffffffffffffffffffffffffffffffffffffffffffffffffffffffffffff1916908160001a9053507f780000000000000000000000000000000000000000000000000000000000000081600181518110614da857fe5b60200101907effffffffffffffffffffffffffffffffffffffffffffffffffffffffffffff1916908160001a90535060008090505b8451811015614f0757826004868381518110614df557fe5b602001015160f81c60f81b7effffffffffffffffffffffffffffffffffffffffffffffffffffffffffffff1916901c60f81c60ff1681518110614e3457fe5b602001015160f81c60f81b826002830260020181518110614e5157fe5b60200101907effffffffffffffffffffffffffffffffffffffffffffffffffffffffffffff1916908160001a90535082600f60f81b868381518110614e9257fe5b602001015160f81c60f81b1660f81c60ff1681518110614eae57fe5b602001015160f81c60f81b826002830260030181518110614ecb57fe5b60200101907effffffffffffffffffffffffffffffffffffffffffffffffffffffffffffff1916908160001a9053508080600101915050614ddd565b508092505050919050565b828054600181600116156101000203166002900490600052602060002090601f016020900481019282601f10614f5357805160ff1916838001178555614f81565b82800160010185558215614f81579182015b82811115614f80578251825591602001919060010190614f65565b5b509050614f8e9190615049565b5090565b828054600181600116156101000203166002900490600052602060002090601f016020900481019282601f10614fd357805160ff1916838001178555615001565b82800160010185558215615001579182015b82811115615000578251825591602001919060010190614fe5565b5b50905061500e9190615049565b5090565b6040518060600160405280600073ffffffffffffffffffffffffffffffffffffffff16815260200160008152602001606081525090565b61506b91905b8082111561506757600081600090555060010161504f565b5090565b9056fe596f7520617265206e6f74206f776e6572206f722073656c6c6572206f66206974656da265627a7a723158206dd5c4a58f364f4b5f3d1ecbe226df0dbbd415f83168c7812d3e3a4d493f239064736f6c63430005100032",
  "source": "pragma solidity ^0.5.0;\n\n/**\n * @title   Screen Selling Platform\n * @notice  This contract abstracts the screen selling\n * marketplace and provides functions to perform\n * transactions\n * @author  Team Block-Daggers\n *\n */\ncontract Auction {\n    /**\n     * This enum defines status of screen (item) present in the\n     * marketplace\n     *\n     */\n    enum ITEM_STATUS {\n        LOCKED, /// Item is being processed, hence is not listed in marketplace\n        OPEN, /// Item is being sold at marketplace\n        BUYING, /// Buyer has paid for the item, but hasn't received it yet\n        BOUGHT /// Buyer received the item\n    }\n\n    enum AUCTION_STATUS {\n        ONGOING,\n        VERIFICATION,\n        REVEALED\n    }\n\n    enum AUCTION_TYPE {\n        FIRST_PRICE,\n        SECOND_PRICE,\n        AVG_PRICE,\n        FIXED\n    }\n\n    /**\n     * This struct defines the blueprint of each screen (item)\n     * present in the marketplace\n     *\n     */\n    struct Listing {\n        address payable seller;\n        ITEM_STATUS status;\n        string item_name;\n        string item_desc;\n        string secret_string;\n        uint256 asking_price;\n        uint256 final_price;\n        mapping(bytes32 => bool) hashedBids;\n        Bidder[] verifiedBids;\n        Bidder bidWinner;\n        AUCTION_STATUS auctionStatus;\n        AUCTION_TYPE auctionType;\n    }\n\n    struct Bidder {\n        address payable buyer;\n        uint256 price;\n        string public_key;\n    }\n\n    uint256 private itemsCount;\n    mapping(uint256 => Listing) private itemsList;\n\n    /**\n     * Initialising smart contract to the scenario when no item\n     * is present in the marketplace\n     *\n     */\n    constructor() public {\n        itemsCount = 0;\n    }\n\n    /**\n     * Allows only seller of item to access the function\n     *\n     * @param index unique id of item\n     */\n    modifier onlyItemSeller(uint256 index) {\n        require(index <= itemsCount && index > 0, \"Item not present in list\");\n        require(\n            msg.sender == itemsList[index].seller,\n            \"You are not seller of item\"\n        );\n        _;\n    }\n\n    /**\n     * Allows only buyer or seller to access the function\n     *\n     * @param index unique id of item\n     */\n    modifier onlyItemOwnerOrSeller(uint256 index) {\n        require(index <= itemsCount && index > 0, \"Item not present in list\");\n\n        require(\n            msg.sender == itemsList[index].seller ||\n                (msg.sender == itemsList[index].bidWinner.buyer &&\n                    itemsList[index].status == ITEM_STATUS.BOUGHT),\n            \"You are not owner or seller of item\"\n        );\n        _;\n    }\n\n    /**\n     * Adds an item in the marketplace\n     * Used by: Seller\n     *\n     * @param _item_name name of item\n     * @param _item_desc description of item\n     * @param _asking_price asking price of item\n     */\n    function addItem(\n        string memory _item_name,\n        string memory _item_desc,\n        uint256 _asking_price,\n        uint256 _auction_type\n    ) public returns (uint256) {\n        itemsCount++;\n        itemsList[itemsCount].status = ITEM_STATUS.LOCKED;\n        itemsList[itemsCount].item_desc = _item_desc;\n        itemsList[itemsCount].seller = msg.sender;\n        itemsList[itemsCount].item_name = _item_name;\n        itemsList[itemsCount].asking_price = _asking_price;\n        itemsList[itemsCount].status = ITEM_STATUS.OPEN;\n        itemsList[itemsCount].auctionStatus = AUCTION_STATUS.ONGOING;\n        if (_auction_type == 0) {\n            itemsList[itemsCount].auctionType = AUCTION_TYPE.FIRST_PRICE;\n        } else if (_auction_type == 1) {\n            itemsList[itemsCount].auctionType = AUCTION_TYPE.SECOND_PRICE;\n        } else if (_auction_type == 2) {\n            itemsList[itemsCount].auctionType = AUCTION_TYPE.AVG_PRICE;\n        } else {\n            itemsList[itemsCount].auctionStatus = AUCTION_STATUS.VERIFICATION;\n            itemsList[itemsCount].auctionType = AUCTION_TYPE.FIXED;\n        }\n        return itemsCount;\n    }\n\n    function bidItem(uint256 item_id, bytes32 hashString) public {\n        require(\n            item_id <= itemsCount && item_id > 0,\n            \"Item not present in list\"\n        );\n        require(\n            itemsList[item_id].auctionStatus == AUCTION_STATUS.ONGOING,\n            \"Auction not ongoing\"\n        );\n        itemsList[item_id].hashedBids[hashString] = true;\n    }\n\n    function closeBid(uint256 item_id) public {\n        require(\n            msg.sender == itemsList[item_id].seller || msg.sender == address(this),\n            'Access denied'\n        );\n        require(\n            item_id <= itemsCount && item_id > 0,\n            \"Item not present in list\"\n        );\n        require(\n            itemsList[item_id].auctionStatus == AUCTION_STATUS.ONGOING,\n            \"Auction not ongoing\"\n        );\n        itemsList[item_id].auctionStatus = AUCTION_STATUS.VERIFICATION;\n    }\n\n    function verifyBid(\n        uint256 item_id,\n        string memory password,\n        string memory public_key\n    ) public payable {\n        require(\n            item_id <= itemsCount && item_id > 0,\n            \"Item not present in list\"\n        );\n        require(\n            itemsList[item_id].auctionStatus == AUCTION_STATUS.VERIFICATION,\n            \"Bid verification not in progress\"\n        );\n        if(itemsList[item_id].auctionType == AUCTION_TYPE.FIXED){\n            if(msg.value == itemsList[item_id].asking_price){\n                itemsList[item_id].final_price = msg.value;\n                itemsList[item_id].bidWinner = Bidder(msg.sender, msg.value, public_key); \n                itemsList[item_id].status = ITEM_STATUS.BUYING;\n                itemsList[itemsCount].auctionStatus = AUCTION_STATUS.REVEALED;   // everything is done \n            }\n            else{\n                revert(\"Invalid Price\");\n            }\n        }\n        else{\n            bytes32 hashValue = keccak256(\n                abi.encodePacked(msg.sender, password, msg.value)\n            );\n            if(itemsList[item_id].hashedBids[hashValue] != true){\n                revert(\"Invalid details\");\n            }\n\n            itemsList[item_id].verifiedBids.push(\n                Bidder(msg.sender, msg.value, public_key)\n            );\n        }\n\n    }\n\n    function abs(uint256 a, uint256 b) private pure returns (uint256) {\n        if (a >= b) {\n            return a - b;\n        } else {\n            return b - a;\n        }\n    }\n\n    function revealBid(uint256 item_id) public payable onlyItemSeller(item_id){\n        require(\n            item_id <= itemsCount && item_id > 0,\n            \"Item not present in list\"\n        );\n        require(\n            itemsList[item_id].auctionStatus == AUCTION_STATUS.VERIFICATION,\n            \"Bid verification not in progress\"\n        );\n\n        uint256 maxBid = 0;\n        Bidder memory maxBidder;\n        uint256 secondMaxBid = 0;\n        uint256 totalBid = 0;\n\n        for (uint256 i = 0; i < itemsList[item_id].verifiedBids.length; i++) {\n            uint256 currentBidPrice = itemsList[item_id].verifiedBids[i].price;\n            totalBid += currentBidPrice;\n            if (currentBidPrice > maxBid) {\n                secondMaxBid = maxBid;\n                maxBid = currentBidPrice;\n                maxBidder = itemsList[item_id].verifiedBids[i];\n            } else if (currentBidPrice > secondMaxBid) {\n                secondMaxBid = currentBidPrice;\n            }\n        }\n\n        if (itemsList[item_id].auctionType == AUCTION_TYPE.FIRST_PRICE) {\n            itemsList[item_id].bidWinner = maxBidder;\n            itemsList[item_id].final_price = maxBid;\n        } else if (\n            itemsList[item_id].auctionType == AUCTION_TYPE.SECOND_PRICE\n        ) {\n            itemsList[item_id].bidWinner = maxBidder;\n            itemsList[item_id].final_price = secondMaxBid;\n        } else if(itemsList[item_id].auctionType == AUCTION_TYPE.AVG_PRICE) {\n            uint256 minDiff = 0;\n            Bidder memory avgBidder;\n            uint256 n = itemsList[item_id].verifiedBids.length;\n            for (uint256 i = 0; i < n; i++) {\n                uint256 currentBidPrice = itemsList[item_id]\n                    .verifiedBids[i]\n                    .price * n;\n                if (abs(currentBidPrice, totalBid) < minDiff) {\n                    avgBidder = itemsList[item_id].verifiedBids[i];\n                }\n\n                itemsList[item_id].bidWinner = avgBidder;\n                itemsList[item_id].final_price = avgBidder.price;\n            }\n        } else{\n            // normal purchase, do nothing\n        }\n\n        itemsList[item_id].status = ITEM_STATUS.BUYING;\n        itemsList[itemsCount].auctionStatus = AUCTION_STATUS.REVEALED;\n        returnNonWinnerMoney(item_id);\n    }\n\n    /**\n     * Gets public key of the buyer from the item being bought\n     * Used by: Seller\n     *\n     * @param item_id unique id of item\n     */\n    function getKey(uint256 item_id)\n        public\n        view\n        onlyItemSeller(item_id)\n        returns (string memory)\n    {\n        require(\n            itemsList[item_id].status == ITEM_STATUS.BUYING,\n            \"KEY NOT AVAILABLE\"\n        );\n        return itemsList[item_id].bidWinner.public_key;\n    }\n\n    /**\n     * Assigns encrypted password to the item which can be only decrypted\n     * by the buyer\n     * Thus, it simulates delivery of the screen (item) from the seller\n     * Item is marked as BOUGHT\n     * Used by: Seller\n     *\n     * @param item_id unique id of item\n     * @param secret_string Encrypted password of the screen (i.e.\n     *                           item) along with the public key of the buyer\n     */\n    function giveAccess(uint256 item_id, string memory secret_string)\n        public\n        payable\n        onlyItemSeller(item_id)\n    {\n        require(\n            itemsList[item_id].status == ITEM_STATUS.BUYING,\n            \"Item not purchased yet\"\n        );\n        itemsList[item_id].secret_string = secret_string;\n        itemsList[item_id].status = ITEM_STATUS.BOUGHT;\n        itemsList[item_id].seller.transfer(itemsList[item_id].final_price);\n        // return pending money of bid winner like in case of auction type 2\n        returnWinnerPendingMoney(item_id);\n    }\n\n    function returnWinnerPendingMoney(uint256 item_id) private {\n        uint256 pendingMoney = itemsList[item_id].bidWinner.price -\n            itemsList[item_id].final_price;\n        itemsList[item_id].bidWinner.buyer.transfer(pendingMoney);\n    }\n\n    function returnNonWinnerMoney(uint256 item_id) private {\n        for (uint256 i = 0; i < itemsList[item_id].verifiedBids.length; i++) {\n            if (\n                itemsList[item_id].verifiedBids[i].buyer ==\n                itemsList[item_id].bidWinner.buyer\n            ) {\n                continue;\n            }\n\n            uint256 returnPrice = itemsList[item_id].verifiedBids[i].price;\n            itemsList[item_id].verifiedBids[i].buyer.transfer(returnPrice);\n        }\n    }\n\n    /**\n     * @dev View pending balance in escrow account\n     * Used by: Developer\n     *\n     */\n    function getBalance() public view returns (uint256) {\n        return address(this).balance;\n    }\n\n    /**\n     * Returns encrypted password of the delivered item\n     * Used by: Buyer, (optional) Seller\n     *\n     * @param item_id unique id of item\n     */\n    function accessItem(uint256 item_id)\n        public\n        view\n        onlyItemOwnerOrSeller(item_id)\n        returns (string memory)\n    {\n        return itemsList[item_id].secret_string;\n    }\n\n    /**\n     * Updates the name of the item listed in the marketplace\n     * Used by: Seller\n     *\n     * @param item_id unique id of item\n     * @param item_name name of item\n     */\n    function changeName(uint256 item_id, string memory item_name)\n        public\n        onlyItemSeller(item_id)\n    {\n        require(\n            itemsList[item_id].status == ITEM_STATUS.OPEN,\n            \"Item is already sold\"\n        );\n        itemsList[item_id].status = ITEM_STATUS.LOCKED;\n        itemsList[item_id].item_name = item_name;\n        itemsList[item_id].status = ITEM_STATUS.OPEN;\n    }\n\n    /**\n     * Updates the price of the item listed in the marketplace\n     * Used by: seller\n     *\n     * @param item_id unique id of item\n     * @param price item price\n     */\n    function changePrice(uint256 item_id, uint256 price)\n        public\n        onlyItemSeller(item_id)\n    {\n        require(\n            itemsList[item_id].status == ITEM_STATUS.OPEN,\n            \"Item is already sold\"\n        );\n        itemsList[item_id].status = ITEM_STATUS.LOCKED;\n        itemsList[item_id].asking_price = price;\n        itemsList[item_id].status = ITEM_STATUS.OPEN;\n    }\n\n    /**\n     * Converts an unsigned integer to its equivalent string\n     *\n     * @param _i number\n     */\n    function uintToStr(uint256 _i)\n        private\n        pure\n        returns (string memory _uintAsString)\n    {\n        uint256 number = _i;\n        if (number == 0) {\n            return \"0\";\n        }\n        uint256 j = number;\n        uint256 len;\n        while (j != 0) {\n            len++;\n            j /= 10;\n        }\n        bytes memory bstr = new bytes(len);\n        uint256 k = len - 1;\n        while (number != 0) {\n            bstr[k--] = bytes1(uint8(48 + (number % 10)));\n            number /= 10;\n        }\n        return string(bstr);\n    }\n\n    /**\n     * Converts address to string\n     * Source: https://ethereum.stackexchange.com/a/58341\n     *\n     * @param account address of account\n     */\n    function toString(address account) private pure returns (string memory) {\n        return toString(abi.encodePacked(account));\n    }\n\n    function toString(bytes memory data) private pure returns (string memory) {\n        bytes memory alphabet = \"0123456789abcdef\";\n\n        bytes memory str = new bytes(2 + data.length * 2);\n        str[0] = \"0\";\n        str[1] = \"x\";\n        for (uint256 i = 0; i < data.length; i++) {\n            str[2 + i * 2] = alphabet[uint256(uint8(data[i] >> 4))];\n            str[3 + i * 2] = alphabet[uint256(uint8(data[i] & 0x0f))];\n        }\n        return string(str);\n    }\n\n    /**\n     * Returns the items present in the marketplace, which are\n     * ready to be sold\n     * Used by: public\n     *\n     */\n    function viewActiveListings() public view returns (string memory) {\n        string memory str = \"[\";\n        for (uint256 i = 1; i <= itemsCount; i++) {\n            if (itemsList[i].auctionStatus == AUCTION_STATUS.ONGOING || (itemsList[i].auctionStatus == AUCTION_STATUS.VERIFICATION && itemsList[i].auctionType == AUCTION_TYPE.FIXED)) {\n                uint at = 0;\n                if(itemsList[i].auctionType == AUCTION_TYPE.SECOND_PRICE){\n                    at=1;\n                }\n                else if(itemsList[i].auctionType == AUCTION_TYPE.AVG_PRICE){\n                    at = 2;\n                }\n                else if(itemsList[i].auctionType == AUCTION_TYPE.FIXED){\n                    at = 3;\n                }\n                uint ast = 0;\n                if(itemsList[i].auctionStatus == AUCTION_STATUS.VERIFICATION){\n                    ast = 1;\n                }\n                else if(itemsList[i].auctionStatus == AUCTION_STATUS.REVEALED)\n                {\n                    ast = 2;\n                }\n                str = string(abi.encodePacked(str, \"{'item-id':\"));\n                str = string(abi.encodePacked(str, uintToStr(i)));\n                str = string(abi.encodePacked(str, \",'item-name':'\"));\n                str = string(abi.encodePacked(str, itemsList[i].item_name));\n                str = string(abi.encodePacked(str, \"','item-description': '\"));\n                str = string(abi.encodePacked(str, itemsList[i].item_desc));\n                str = string(abi.encodePacked(str, \"','asking-price':\"));\n                str = string(abi.encodePacked(str, uintToStr(itemsList[i].asking_price)));\n                str = string(abi.encodePacked(str, \",'auction-type':\"));\n                str = string(abi.encodePacked(str, uintToStr(at)));\n                str = string(abi.encodePacked(str, \",'auction-status':\"));\n                str = string(abi.encodePacked(str, uintToStr(ast)));\n                str = string(abi.encodePacked(str, \",'seller-id': '\"));\n                str = string(abi.encodePacked(str,toString(abi.encodePacked(itemsList[i].seller))));\n                str = string(abi.encodePacked(str, \"'},\"));\n            }\n        }\n        str = string(abi.encodePacked(str, \"]\"));\n        return str;\n    }\n\n    function viewSellerListings(address seller_id) public view returns (string memory) {\n        string memory str = \"[\";\n        for (uint256 i = 1; i <= itemsCount; i++) {\n            if (itemsList[i].seller == seller_id) {\n                uint at = 0;\n                if(itemsList[i].auctionType == AUCTION_TYPE.SECOND_PRICE){\n                    at=1;\n                }\n                else if(itemsList[i].auctionType == AUCTION_TYPE.AVG_PRICE){\n                    at = 2;\n                }\n                else if(itemsList[i].auctionType == AUCTION_TYPE.FIXED){\n                    at = 3;\n                }\n                uint ast = 0;\n                if(itemsList[i].auctionStatus == AUCTION_STATUS.VERIFICATION){\n                    ast = 1;\n                }\n                else if(itemsList[i].auctionStatus == AUCTION_STATUS.REVEALED)\n                {\n                    ast = 2;\n                }\n                \n                str = string(abi.encodePacked(str, \"{'item-id':\"));\n                str = string(abi.encodePacked(str, uintToStr(i)));\n                str = string(abi.encodePacked(str, \",'item-name':'\"));\n                str = string(abi.encodePacked(str, itemsList[i].item_name));\n                str = string(abi.encodePacked(str, \"','item-description': '\"));\n                str = string(abi.encodePacked(str, itemsList[i].item_desc));\n                str = string(abi.encodePacked(str, \"','asking-price':\"));\n                str = string(abi.encodePacked(str, uintToStr(itemsList[i].asking_price)));\n                str = string(abi.encodePacked(str, \",'auction-type':\"));\n                str = string(abi.encodePacked(str, uintToStr(at)));\n                str = string(abi.encodePacked(str, \",'auction-status':\"));\n                str = string(abi.encodePacked(str, uintToStr(ast)));\n                str = string(abi.encodePacked(str, \",'seller-id': '\"));\n                str = string(abi.encodePacked(str,toString(abi.encodePacked(itemsList[i].seller))));\n                str = string(abi.encodePacked(str, \"'},\"));\n            }\n        }\n        str = string(abi.encodePacked(str, \"]\"));\n        return str;\n    }    \n}",
  "sourcePath": "/home/b30wulffz/IIITH/monsoon2021/blockchain/assign2/AuctionApp2/contracts/Auction.sol",
  "compiler": {
    "name": "solc",
    "version": "0.5.16+commit.9c3226ce.Emscripten.clang"
  },
  "schemaVersion": "3.4.3",
  "updatedAt": "2021-10-09T17:50:49.672Z",
  "networkType": "ethereum",
  "devdoc": {
    "author": "Team Block-Daggers ",
    "methods": {
      "accessItem(uint256)": {
        "params": {
          "item_id": "unique id of item"
        }
      },
      "addItem(string,string,uint256,uint256)": {
        "params": {
          "_asking_price": "asking price of item",
          "_item_desc": "description of item",
          "_item_name": "name of item"
        }
      },
      "changeName(uint256,string)": {
        "params": {
          "item_id": "unique id of item",
          "item_name": "name of item"
        }
      },
      "changePrice(uint256,uint256)": {
        "params": {
          "item_id": "unique id of item",
          "price": "item price"
        }
      },
      "getBalance()": {
        "details": "View pending balance in escrow account Used by: Developer     "
      },
      "getKey(uint256)": {
        "params": {
          "item_id": "unique id of item"
        }
      },
      "giveAccess(uint256,string)": {
        "params": {
          "item_id": "unique id of item",
          "secret_string": "Encrypted password of the screen (i.e.                          item) along with the public key of the buyer"
        }
      }
    },
    "title": "Screen Selling Platform"
  },
  "userdoc": {
    "methods": {
      "accessItem(uint256)": {
        "notice": "Returns encrypted password of the delivered item Used by: Buyer, (optional) Seller"
      },
      "addItem(string,string,uint256,uint256)": {
        "notice": "Adds an item in the marketplace Used by: Seller"
      },
      "changeName(uint256,string)": {
        "notice": "Updates the name of the item listed in the marketplace Used by: Seller"
      },
      "changePrice(uint256,uint256)": {
        "notice": "Updates the price of the item listed in the marketplace Used by: seller"
      },
      "constructor": "Initialising smart contract to the scenario when no item is present in the marketplace     ",
      "getKey(uint256)": {
        "notice": "Gets public key of the buyer from the item being bought Used by: Seller"
      },
      "giveAccess(uint256,string)": {
        "notice": "Assigns encrypted password to the item which can be only decrypted by the buyer Thus, it simulates delivery of the screen (item) from the seller Item is marked as BOUGHT Used by: Seller"
      },
      "viewActiveListings()": {
        "notice": "Returns the items present in the marketplace, which are ready to be sold Used by: public     "
      }
    },
    "notice": "This contract abstracts the screen selling marketplace and provides functions to perform transactions"
  }
}