{
  "contractName": "Auction",
  "abi": [
    {
      "inputs": [],
      "payable": false,
      "stateMutability": "nonpayable",
      "type": "constructor"
    },
    {
      "constant": false,
      "inputs": [
        {
          "internalType": "string",
          "name": "_item_name",
          "type": "string"
        },
        {
          "internalType": "string",
          "name": "_item_desc",
          "type": "string"
        },
        {
          "internalType": "uint256",
          "name": "_asking_price",
          "type": "uint256"
        },
        {
          "internalType": "uint256",
          "name": "_auction_type",
          "type": "uint256"
        }
      ],
      "name": "addItem",
      "outputs": [
        {
          "internalType": "uint256",
          "name": "",
          "type": "uint256"
        }
      ],
      "payable": false,
      "stateMutability": "nonpayable",
      "type": "function"
    },
    {
      "constant": false,
      "inputs": [
        {
          "internalType": "uint256",
          "name": "item_id",
          "type": "uint256"
        },
        {
          "internalType": "bytes32",
          "name": "hashString",
          "type": "bytes32"
        }
      ],
      "name": "bidItem",
      "outputs": [],
      "payable": false,
      "stateMutability": "nonpayable",
      "type": "function"
    },
    {
      "constant": false,
      "inputs": [
        {
          "internalType": "uint256",
          "name": "item_id",
          "type": "uint256"
        }
      ],
      "name": "closeBid",
      "outputs": [],
      "payable": false,
      "stateMutability": "nonpayable",
      "type": "function"
    },
    {
      "constant": false,
      "inputs": [
        {
          "internalType": "uint256",
          "name": "item_id",
          "type": "uint256"
        },
        {
          "internalType": "string",
          "name": "password",
          "type": "string"
        },
        {
          "internalType": "string",
          "name": "public_key",
          "type": "string"
        }
      ],
      "name": "verifyBid",
      "outputs": [],
      "payable": true,
      "stateMutability": "payable",
      "type": "function"
    },
    {
      "constant": false,
      "inputs": [
        {
          "internalType": "uint256",
          "name": "item_id",
          "type": "uint256"
        }
      ],
      "name": "revealBid",
      "outputs": [],
      "payable": true,
      "stateMutability": "payable",
      "type": "function"
    },
    {
      "constant": true,
      "inputs": [
        {
          "internalType": "uint256",
          "name": "item_id",
          "type": "uint256"
        }
      ],
      "name": "getKey",
      "outputs": [
        {
          "internalType": "string",
          "name": "",
          "type": "string"
        }
      ],
      "payable": false,
      "stateMutability": "view",
      "type": "function"
    },
    {
      "constant": false,
      "inputs": [
        {
          "internalType": "uint256",
          "name": "item_id",
          "type": "uint256"
        },
        {
          "internalType": "string",
          "name": "secret_string",
          "type": "string"
        }
      ],
      "name": "giveAccess",
      "outputs": [],
      "payable": true,
      "stateMutability": "payable",
      "type": "function"
    },
    {
      "constant": true,
      "inputs": [],
      "name": "getBalance",
      "outputs": [
        {
          "internalType": "uint256",
          "name": "",
          "type": "uint256"
        }
      ],
      "payable": false,
      "stateMutability": "view",
      "type": "function"
    },
    {
      "constant": true,
      "inputs": [
        {
          "internalType": "uint256",
          "name": "item_id",
          "type": "uint256"
        }
      ],
      "name": "accessItem",
      "outputs": [
        {
          "internalType": "string",
          "name": "",
          "type": "string"
        }
      ],
      "payable": false,
      "stateMutability": "view",
      "type": "function"
    },
    {
      "constant": false,
      "inputs": [
        {
          "internalType": "uint256",
          "name": "item_id",
          "type": "uint256"
        },
        {
          "internalType": "string",
          "name": "item_name",
          "type": "string"
        }
      ],
      "name": "changeName",
      "outputs": [],
      "payable": false,
      "stateMutability": "nonpayable",
      "type": "function"
    },
    {
      "constant": false,
      "inputs": [
        {
          "internalType": "uint256",
          "name": "item_id",
          "type": "uint256"
        },
        {
          "internalType": "uint256",
          "name": "price",
          "type": "uint256"
        }
      ],
      "name": "changePrice",
      "outputs": [],
      "payable": false,
      "stateMutability": "nonpayable",
      "type": "function"
    },
    {
      "constant": true,
      "inputs": [],
      "name": "viewActiveListings",
      "outputs": [
        {
          "internalType": "string",
          "name": "",
          "type": "string"
        }
      ],
      "payable": false,
      "stateMutability": "view",
      "type": "function"
    },
    {
      "constant": true,
      "inputs": [
        {
          "internalType": "address",
          "name": "seller_id",
          "type": "address"
        }
      ],
      "name": "viewSellerListings",
      "outputs": [
        {
          "internalType": "string",
          "name": "",
          "type": "string"
        }
      ],
      "payable": false,
      "stateMutability": "view",
      "type": "function"
    }
  ],
  "bytecode": "0x608060405234801561001057600080fd5b5060008081905550615300806100276000396000f3fe6080604052600436106100c25760003560e01c80639e5406cf1161007f578063bdbd0ad711610059578063bdbd0ad7146105c3578063c39cbef11461068d578063dc8cbd2c1461075f578063f6a89810146108e6576100c2565b80639e5406cf1461043a578063b3de019c146104ca578063bb5b27e11461050f576100c2565b80630468d2c6146100c757806305d2dd9c1461010c57806312065fe014610268578063321a8fa5146102935780633e3b903e146103585780635f099c1114610386575b600080fd5b3480156100d357600080fd5b5061010a600480360360408110156100ea57600080fd5b810190808035906020019092919080359060200190929190505050610921565b005b6102666004803603606081101561012257600080fd5b81019080803590602001909291908035906020019064010000000081111561014957600080fd5b82018360208201111561015b57600080fd5b8035906020019184600183028401116401000000008311171561017d57600080fd5b91908080601f016020809104026020016040519081016040528093929190818152602001838380828437600081840152601f19601f820116905080830192505050505050509192919290803590602001906401000000008111156101e057600080fd5b8201836020820111156101f257600080fd5b8035906020019184600183028401116401000000008311171561021457600080fd5b91908080601f016020809104026020016040519081016040528093929190818152602001838380828437600081840152601f19601f820116905080830192505050505050509192919290505050610a97565b005b34801561027457600080fd5b5061027d611032565b6040518082815260200191505060405180910390f35b610356600480360360408110156102a957600080fd5b8101908080359060200190929190803590602001906401000000008111156102d057600080fd5b8201836020820111156102e257600080fd5b8035906020019184600183028401116401000000008311171561030457600080fd5b91908080601f016020809104026020016040519081016040528093929190818152602001838380828437600081840152601f19601f82011690508083019250505050505050919291929050505061103a565b005b6103846004803603602081101561036e57600080fd5b8101908080359060200190929190505050611349565b005b34801561039257600080fd5b506103bf600480360360208110156103a957600080fd5b8101908080359060200190929190505050611cda565b6040518080602001828103825283818151815260200191508051906020019080838360005b838110156103ff5780820151818401526020810190506103e4565b50505050905090810190601f16801561042c5780820380516001836020036101000a031916815260200191505b509250505060405180910390f35b34801561044657600080fd5b5061044f611f85565b6040518080602001828103825283818151815260200191508051906020019080838360005b8381101561048f578082015181840152602081019050610474565b50505050905090810190601f1680156104bc5780820380516001836020036101000a031916815260200191505b509250505060405180910390f35b3480156104d657600080fd5b5061050d600480360360408110156104ed57600080fd5b810190808035906020019092919080359060200190929190505050612e49565b005b34801561051b57600080fd5b506105486004803603602081101561053257600080fd5b81019080803590602001909291905050506130e3565b6040518080602001828103825283818151815260200191508051906020019080838360005b8381101561058857808201518184015260208101905061056d565b50505050905090810190601f1680156105b55780820380516001836020036101000a031916815260200191505b509250505060405180910390f35b3480156105cf57600080fd5b50610612600480360360208110156105e657600080fd5b81019080803573ffffffffffffffffffffffffffffffffffffffff1690602001909291905050506133aa565b6040518080602001828103825283818151815260200191508051906020019080838360005b83811015610652578082015181840152602081019050610637565b50505050905090810190601f16801561067f5780820380516001836020036101000a031916815260200191505b509250505060405180910390f35b34801561069957600080fd5b5061075d600480360360408110156106b057600080fd5b8101908080359060200190929190803590602001906401000000008111156106d757600080fd5b8201836020820111156106e957600080fd5b8035906020019184600183028401116401000000008311171561070b57600080fd5b91908080601f016020809104026020016040519081016040528093929190818152602001838380828437600081840152601f19601f820116905080830192505050505050509192919290505050614210565b005b34801561076b57600080fd5b506108d06004803603608081101561078257600080fd5b810190808035906020019064010000000081111561079f57600080fd5b8201836020820111156107b157600080fd5b803590602001918460018302840111640100000000831117156107d357600080fd5b91908080601f016020809104026020016040519081016040528093929190818152602001838380828437600081840152601f19601f8201169050808301925050505050505091929192908035906020019064010000000081111561083657600080fd5b82018360208201111561084857600080fd5b8035906020019184600183028401116401000000008311171561086a57600080fd5b91908080601f016020809104026020016040519081016040528093929190818152602001838380828437600081840152601f19601f82011690508083019250505050505050919291929080359060200190929190803590602001909291905050506144ba565b6040518082815260200191505060405180910390f35b3480156108f257600080fd5b5061091f6004803603602081101561090957600080fd5b8101908080359060200190929190505050614888565b005b60005482111580156109335750600082115b6109a5576040517f08c379a00000000000000000000000000000000000000000000000000000000081526004018080602001828103825260188152602001807f4974656d206e6f742070726573656e7420696e206c697374000000000000000081525060200191505060405180910390fd5b600060028111156109b257fe5b60016000848152602001908152602001600020600b0160009054906101000a900460ff1660028111156109e157fe5b14610a54576040517f08c379a00000000000000000000000000000000000000000000000000000000081526004018080602001828103825260138152602001807f41756374696f6e206e6f74206f6e676f696e670000000000000000000000000081525060200191505060405180910390fd5b6001806000848152602001908152602001600020600601600083815260200190815260200160002060006101000a81548160ff0219169083151502179055505050565b6000548311158015610aa95750600083115b610b1b576040517f08c379a00000000000000000000000000000000000000000000000000000000081526004018080602001828103825260188152602001807f4974656d206e6f742070726573656e7420696e206c697374000000000000000081525060200191505060405180910390fd5b60016002811115610b2857fe5b60016000858152602001908152602001600020600b0160009054906101000a900460ff166002811115610b5757fe5b14610bca576040517f08c379a00000000000000000000000000000000000000000000000000000000081526004018080602001828103825260208152602001807f42696420766572696669636174696f6e206e6f7420696e2070726f677265737381525060200191505060405180910390fd5b600380811115610bd657fe5b60016000858152602001908152602001600020600b0160019054906101000a900460ff166003811115610c0557fe5b1415610de5576001600084815260200190815260200160002060040154341415610d725734600160008581526020019081526020016000206005018190555060405180606001604052803373ffffffffffffffffffffffffffffffffffffffff168152602001348152602001828152506001600085815260200190815260200160002060080160008201518160000160006101000a81548173ffffffffffffffffffffffffffffffffffffffff021916908373ffffffffffffffffffffffffffffffffffffffff160217905550602082015181600101556040820151816002019080519060200190610cf892919061514c565b5090505060026001600085815260200190815260200160002060000160146101000a81548160ff02191690836003811115610d2f57fe5b021790555060026001600080548152602001908152602001600020600b0160006101000a81548160ff02191690836002811115610d6857fe5b0217905550610de0565b6040517f08c379a000000000000000000000000000000000000000000000000000000000815260040180806020018281038252600d8152602001807f496e76616c69642050726963650000000000000000000000000000000000000081525060200191505060405180910390fd5b61102d565b6000338334604051602001808473ffffffffffffffffffffffffffffffffffffffff1673ffffffffffffffffffffffffffffffffffffffff1660601b815260140183805190602001908083835b60208310610e555780518252602082019150602081019050602083039250610e32565b6001836020036101000a03801982511681845116808217855250505050505090500182815260200193505050506040516020818303038152906040528051906020012090506001151560016000868152602001908152602001600020600601600083815260200190815260200160002060009054906101000a900460ff16151514610f48576040517f08c379a000000000000000000000000000000000000000000000000000000000815260040180806020018281038252600f8152602001807f496e76616c69642064657461696c73000000000000000000000000000000000081525060200191505060405180910390fd5b6001600085815260200190815260200160002060070160405180606001604052803373ffffffffffffffffffffffffffffffffffffffff168152602001348152602001848152509080600181540180825580915050906001820390600052602060002090600302016000909192909190915060008201518160000160006101000a81548173ffffffffffffffffffffffffffffffffffffffff021916908373ffffffffffffffffffffffffffffffffffffffff16021790555060208201518160010155604082015181600201908051906020019061102792919061514c565b50505050505b505050565b600047905090565b81600054811115801561104d5750600081115b6110bf576040517f08c379a00000000000000000000000000000000000000000000000000000000081526004018080602001828103825260188152602001807f4974656d206e6f742070726573656e7420696e206c697374000000000000000081525060200191505060405180910390fd5b6001600082815260200190815260200160002060000160009054906101000a900473ffffffffffffffffffffffffffffffffffffffff1673ffffffffffffffffffffffffffffffffffffffff163373ffffffffffffffffffffffffffffffffffffffff1614611196576040517f08c379a000000000000000000000000000000000000000000000000000000000815260040180806020018281038252601a8152602001807f596f7520617265206e6f742073656c6c6572206f66206974656d00000000000081525060200191505060405180910390fd5b600260038111156111a357fe5b6001600085815260200190815260200160002060000160149054906101000a900460ff1660038111156111d257fe5b14611245576040517f08c379a00000000000000000000000000000000000000000000000000000000081526004018080602001828103825260168152602001807f4974656d206e6f7420707572636861736564207965740000000000000000000081525060200191505060405180910390fd5b8160016000858152602001908152602001600020600301908051906020019061126f9291906151cc565b5060036001600085815260200190815260200160002060000160146101000a81548160ff021916908360038111156112a357fe5b02179055506001600084815260200190815260200160002060000160009054906101000a900473ffffffffffffffffffffffffffffffffffffffff1673ffffffffffffffffffffffffffffffffffffffff166108fc60016000868152602001908152602001600020600501549081150290604051600060405180830381858888f1935050505015801561133a573d6000803e3d6000fd5b5061134483614b02565b505050565b80600054811115801561135c5750600081115b6113ce576040517f08c379a00000000000000000000000000000000000000000000000000000000081526004018080602001828103825260188152602001807f4974656d206e6f742070726573656e7420696e206c697374000000000000000081525060200191505060405180910390fd5b6001600082815260200190815260200160002060000160009054906101000a900473ffffffffffffffffffffffffffffffffffffffff1673ffffffffffffffffffffffffffffffffffffffff163373ffffffffffffffffffffffffffffffffffffffff16146114a5576040517f08c379a000000000000000000000000000000000000000000000000000000000815260040180806020018281038252601a8152602001807f596f7520617265206e6f742073656c6c6572206f66206974656d00000000000081525060200191505060405180910390fd5b60005482111580156114b75750600082115b611529576040517f08c379a00000000000000000000000000000000000000000000000000000000081526004018080602001828103825260188152602001807f4974656d206e6f742070726573656e7420696e206c697374000000000000000081525060200191505060405180910390fd5b6001600281111561153657fe5b60016000848152602001908152602001600020600b0160009054906101000a900460ff16600281111561156557fe5b146115d8576040517f08c379a00000000000000000000000000000000000000000000000000000000081526004018080602001828103825260208152602001807f42696420766572696669636174696f6e206e6f7420696e2070726f677265737381525060200191505060405180910390fd5b60008090506115e561524c565b6000809050600080905060008090505b60016000888152602001908152602001600020600701805490508110156117be57600060016000898152602001908152602001600020600701828154811061163957fe5b90600052602060002090600302016001015490508083019250858111156117a35785935080955060016000898152602001908152602001600020600701828154811061168157fe5b90600052602060002090600302016040518060600160405290816000820160009054906101000a900473ffffffffffffffffffffffffffffffffffffffff1673ffffffffffffffffffffffffffffffffffffffff1673ffffffffffffffffffffffffffffffffffffffff16815260200160018201548152602001600282018054600181600116156101000203166002900480601f0160208091040260200160405190810160405280929190818152602001828054600181600116156101000203166002900480156117935780601f1061176857610100808354040283529160200191611793565b820191906000526020600020905b81548152906001019060200180831161177657829003601f168201915b50505050508152505094506117b0565b838111156117af578093505b5b5080806001019150506115f5565b50600060038111156117cc57fe5b60016000888152602001908152602001600020600b0160019054906101000a900460ff1660038111156117fb57fe5b14156118a957826001600088815260200190815260200160002060080160008201518160000160006101000a81548173ffffffffffffffffffffffffffffffffffffffff021916908373ffffffffffffffffffffffffffffffffffffffff16021790555060208201518160010155604082015181600201908051906020019061188592919061514c565b50905050836001600088815260200190815260200160002060050181905550611c58565b600160038111156118b657fe5b60016000888152602001908152602001600020600b0160019054906101000a900460ff1660038111156118e557fe5b141561199357826001600088815260200190815260200160002060080160008201518160000160006101000a81548173ffffffffffffffffffffffffffffffffffffffff021916908373ffffffffffffffffffffffffffffffffffffffff16021790555060208201518160010155604082015181600201908051906020019061196f92919061514c565b50905050816001600088815260200190815260200160002060050181905550611c57565b600260038111156119a057fe5b60016000888152602001908152602001600020600b0160019054906101000a900460ff1660038111156119cf57fe5b1415611c555760008090506119e261524c565b6000600160008a815260200190815260200160002060070180549050905060008090505b81811015611c4c57600082600160008d81526020019081526020016000206007018381548110611a3257fe5b90600052602060002090600302016001015402905084611a528288614bbc565b1015611b9757600160008c81526020019081526020016000206007018281548110611a7957fe5b90600052602060002090600302016040518060600160405290816000820160009054906101000a900473ffffffffffffffffffffffffffffffffffffffff1673ffffffffffffffffffffffffffffffffffffffff1673ffffffffffffffffffffffffffffffffffffffff16815260200160018201548152602001600282018054600181600116156101000203166002900480601f016020809104026020016040519081016040528092919081815260200182805460018160011615610100020316600290048015611b8b5780601f10611b6057610100808354040283529160200191611b8b565b820191906000526020600020905b815481529060010190602001808311611b6e57829003601f168201915b50505050508152505093505b83600160008d815260200190815260200160002060080160008201518160000160006101000a81548173ffffffffffffffffffffffffffffffffffffffff021916908373ffffffffffffffffffffffffffffffffffffffff160217905550602082015181600101556040820151816002019080519060200190611c1b92919061514c565b509050508360200151600160008d815260200190815260200160002060050181905550508080600101915050611a06565b50505050611c56565b5b5b5b60026001600088815260200190815260200160002060000160146101000a81548160ff02191690836003811115611c8b57fe5b021790555060026001600080548152602001908152602001600020600b0160006101000a81548160ff02191690836002811115611cc457fe5b0217905550611cd286614bdb565b505050505050565b6060816000548111158015611cef5750600081115b611d61576040517f08c379a00000000000000000000000000000000000000000000000000000000081526004018080602001828103825260188152602001807f4974656d206e6f742070726573656e7420696e206c697374000000000000000081525060200191505060405180910390fd5b6001600082815260200190815260200160002060000160009054906101000a900473ffffffffffffffffffffffffffffffffffffffff1673ffffffffffffffffffffffffffffffffffffffff163373ffffffffffffffffffffffffffffffffffffffff161480611e7957506001600082815260200190815260200160002060080160000160009054906101000a900473ffffffffffffffffffffffffffffffffffffffff1673ffffffffffffffffffffffffffffffffffffffff163373ffffffffffffffffffffffffffffffffffffffff16148015611e785750600380811115611e4757fe5b6001600083815260200190815260200160002060000160149054906101000a900460ff166003811115611e7657fe5b145b5b611ece576040517f08c379a00000000000000000000000000000000000000000000000000000000081526004018080602001828103825260238152602001806152a96023913960400191505060405180910390fd5b600160008481526020019081526020016000206003018054600181600116156101000203166002900480601f016020809104026020016040519081016040528092919081815260200182805460018160011615610100020316600290048015611f785780601f10611f4d57610100808354040283529160200191611f78565b820191906000526020600020905b815481529060010190602001808311611f5b57829003601f168201915b5050505050915050919050565b6060806040518060400160405280600181526020017f5b0000000000000000000000000000000000000000000000000000000000000081525090506000600190505b6000548111612dac5760006002811115611fdd57fe5b60016000838152602001908152602001600020600b0160009054906101000a900460ff16600281111561200c57fe5b148061209557506001600281111561202057fe5b60016000838152602001908152602001600020600b0160009054906101000a900460ff16600281111561204f57fe5b148015612094575060038081111561206357fe5b60016000838152602001908152602001600020600b0160019054906101000a900460ff16600381111561209257fe5b145b5b15612d9f576000809050600160038111156120ac57fe5b60016000848152602001908152602001600020600b0160019054906101000a900460ff1660038111156120db57fe5b14156120ea576001905061217d565b600260038111156120f757fe5b60016000848152602001908152602001600020600b0160019054906101000a900460ff16600381111561212657fe5b1415612135576002905061217c565b60038081111561214157fe5b60016000848152602001908152602001600020600b0160019054906101000a900460ff16600381111561217057fe5b141561217b57600390505b5b5b60008090506001600281111561218f57fe5b60016000858152602001908152602001600020600b0160009054906101000a900460ff1660028111156121be57fe5b14156121cd5760019050612214565b6002808111156121d957fe5b60016000858152602001908152602001600020600b0160009054906101000a900460ff16600281111561220857fe5b141561221357600290505b5b836040516020018082805190602001908083835b6020831061224b5780518252602082019150602081019050602083039250612228565b6001836020036101000a038019825116818451168082178552505050505050905001807f7b226974656d4964223a00000000000000000000000000000000000000000000815250600a019150506040516020818303038152906040529350836122b384614da9565b6040516020018083805190602001908083835b602083106122e957805182526020820191506020810190506020830392506122c6565b6001836020036101000a03801982511681845116808217855250505050505090500182805190602001908083835b6020831061233a5780518252602082019150602081019050602083039250612317565b6001836020036101000a038019825116818451168082178552505050505050905001925050506040516020818303038152906040529350836040516020018082805190602001908083835b602083106123a85780518252602082019150602081019050602083039250612385565b6001836020036101000a038019825116818451168082178552505050505050905001807f2c226974656d4e616d65223a2200000000000000000000000000000000000000815250600d01915050604051602081830303815290604052935083600160008581526020019081526020016000206001016040516020018083805190602001908083835b602083106124535780518252602082019150602081019050602083039250612430565b6001836020036101000a038019825116818451168082178552505050505050905001828054600181600116156101000203166002900480156124cc5780601f106124aa5761010080835404028352918201916124cc565b820191906000526020600020905b8154815290600101906020018083116124b8575b5050925050506040516020818303038152906040529350836040516020018082805190602001908083835b6020831061251a57805182526020820191506020810190506020830392506124f7565b6001836020036101000a038019825116818451168082178552505050505050905001807f222c226974656d4465736372697074696f6e223a202200000000000000000000815250601601915050604051602081830303815290604052935083600160008581526020019081526020016000206002016040516020018083805190602001908083835b602083106125c557805182526020820191506020810190506020830392506125a2565b6001836020036101000a0380198251168184511680821785525050505050509050018280546001816001161561010002031660029004801561263e5780601f1061261c57610100808354040283529182019161263e565b820191906000526020600020905b81548152906001019060200180831161262a575b5050925050506040516020818303038152906040529350836040516020018082805190602001908083835b6020831061268c5780518252602082019150602081019050602083039250612669565b6001836020036101000a038019825116818451168082178552505050505050905001807f222c2261736b696e675072696365223a0000000000000000000000000000000081525060100191505060405160208183030381529060405293508361270a6001600086815260200190815260200160002060040154614da9565b6040516020018083805190602001908083835b60208310612740578051825260208201915060208101905060208303925061271d565b6001836020036101000a03801982511681845116808217855250505050505090500182805190602001908083835b60208310612791578051825260208201915060208101905060208303925061276e565b6001836020036101000a038019825116818451168082178552505050505050905001925050506040516020818303038152906040529350836040516020018082805190602001908083835b602083106127ff57805182526020820191506020810190506020830392506127dc565b6001836020036101000a038019825116818451168082178552505050505050905001807f2c2261756374696f6e54797065223a0000000000000000000000000000000000815250600f0191505060405160208183030381529060405293508361286783614da9565b6040516020018083805190602001908083835b6020831061289d578051825260208201915060208101905060208303925061287a565b6001836020036101000a03801982511681845116808217855250505050505090500182805190602001908083835b602083106128ee57805182526020820191506020810190506020830392506128cb565b6001836020036101000a038019825116818451168082178552505050505050905001925050506040516020818303038152906040529350836040516020018082805190602001908083835b6020831061295c5780518252602082019150602081019050602083039250612939565b6001836020036101000a038019825116818451168082178552505050505050905001807f2c2261756374696f6e537461747573223a0000000000000000000000000000008152506011019150506040516020818303038152906040529350836129c482614da9565b6040516020018083805190602001908083835b602083106129fa57805182526020820191506020810190506020830392506129d7565b6001836020036101000a03801982511681845116808217855250505050505090500182805190602001908083835b60208310612a4b5780518252602082019150602081019050602083039250612a28565b6001836020036101000a038019825116818451168082178552505050505050905001925050506040516020818303038152906040529350836040516020018082805190602001908083835b60208310612ab95780518252602082019150602081019050602083039250612a96565b6001836020036101000a038019825116818451168082178552505050505050905001807f2c2273656c6c65724964223a2022000000000000000000000000000000000000815250600e01915050604051602081830303815290604052935083612ba56001600086815260200190815260200160002060000160009054906101000a900473ffffffffffffffffffffffffffffffffffffffff16604051602001808273ffffffffffffffffffffffffffffffffffffffff1673ffffffffffffffffffffffffffffffffffffffff1660601b8152601401915050604051602081830303815290604052614edd565b6040516020018083805190602001908083835b60208310612bdb5780518252602082019150602081019050602083039250612bb8565b6001836020036101000a03801982511681845116808217855250505050505090500182805190602001908083835b60208310612c2c5780518252602082019150602081019050602083039250612c09565b6001836020036101000a0380198251168184511680821785525050505050509050019250505060405160208183030381529060405293506000548314612d0657836040516020018082805190602001908083835b60208310612ca35780518252602082019150602081019050602083039250612c80565b6001836020036101000a038019825116818451168082178552505050505050905001807f227d2c00000000000000000000000000000000000000000000000000000000008152506003019150506040516020818303038152906040529350612d9c565b836040516020018082805190602001908083835b60208310612d3d5780518252602082019150602081019050602083039250612d1a565b6001836020036101000a038019825116818451168082178552505050505050905001807f227d00000000000000000000000000000000000000000000000000000000000081525060020191505060405160208183030381529060405293505b50505b8080600101915050611fc7565b50806040516020018082805190602001908083835b60208310612de45780518252602082019150602081019050602083039250612dc1565b6001836020036101000a038019825116818451168082178552505050505050905001807f5d0000000000000000000000000000000000000000000000000000000000000081525060010191505060405160208183030381529060405290508091505090565b816000548111158015612e5c5750600081115b612ece576040517f08c379a00000000000000000000000000000000000000000000000000000000081526004018080602001828103825260188152602001807f4974656d206e6f742070726573656e7420696e206c697374000000000000000081525060200191505060405180910390fd5b6001600082815260200190815260200160002060000160009054906101000a900473ffffffffffffffffffffffffffffffffffffffff1673ffffffffffffffffffffffffffffffffffffffff163373ffffffffffffffffffffffffffffffffffffffff1614612fa5576040517f08c379a000000000000000000000000000000000000000000000000000000000815260040180806020018281038252601a8152602001807f596f7520617265206e6f742073656c6c6572206f66206974656d00000000000081525060200191505060405180910390fd5b60016003811115612fb257fe5b6001600085815260200190815260200160002060000160149054906101000a900460ff166003811115612fe157fe5b14613054576040517f08c379a00000000000000000000000000000000000000000000000000000000081526004018080602001828103825260148152602001807f4974656d20697320616c726561647920736f6c6400000000000000000000000081525060200191505060405180910390fd5b60006001600085815260200190815260200160002060000160146101000a81548160ff0219169083600381111561308757fe5b0217905550816001600085815260200190815260200160002060040181905550600180600085815260200190815260200160002060000160146101000a81548160ff021916908360038111156130d957fe5b0217905550505050565b60608160005481111580156130f85750600081115b61316a576040517f08c379a00000000000000000000000000000000000000000000000000000000081526004018080602001828103825260188152602001807f4974656d206e6f742070726573656e7420696e206c697374000000000000000081525060200191505060405180910390fd5b6001600082815260200190815260200160002060000160009054906101000a900473ffffffffffffffffffffffffffffffffffffffff1673ffffffffffffffffffffffffffffffffffffffff163373ffffffffffffffffffffffffffffffffffffffff1614613241576040517f08c379a000000000000000000000000000000000000000000000000000000000815260040180806020018281038252601a8152602001807f596f7520617265206e6f742073656c6c6572206f66206974656d00000000000081525060200191505060405180910390fd5b6002600381111561324e57fe5b6001600085815260200190815260200160002060000160149054906101000a900460ff16600381111561327d57fe5b146132f0576040517f08c379a00000000000000000000000000000000000000000000000000000000081526004018080602001828103825260118152602001807f4b4559204e4f5420415641494c41424c4500000000000000000000000000000081525060200191505060405180910390fd5b600160008481526020019081526020016000206008016002018054600181600116156101000203166002900480601f01602080910402602001604051908101604052809291908181526020018280546001816001161561010002031660029004801561339d5780601f106133725761010080835404028352916020019161339d565b820191906000526020600020905b81548152906001019060200180831161338057829003601f168201915b5050505050915050919050565b6060806040518060400160405280600181526020017f5b0000000000000000000000000000000000000000000000000000000000000081525090506000600190505b6000548111614171578373ffffffffffffffffffffffffffffffffffffffff166001600083815260200190815260200160002060000160009054906101000a900473ffffffffffffffffffffffffffffffffffffffff1673ffffffffffffffffffffffffffffffffffffffff1614156141645760008090506001600381111561347157fe5b60016000848152602001908152602001600020600b0160019054906101000a900460ff1660038111156134a057fe5b14156134af5760019050613542565b600260038111156134bc57fe5b60016000848152602001908152602001600020600b0160019054906101000a900460ff1660038111156134eb57fe5b14156134fa5760029050613541565b60038081111561350657fe5b60016000848152602001908152602001600020600b0160019054906101000a900460ff16600381111561353557fe5b141561354057600390505b5b5b60008090506001600281111561355457fe5b60016000858152602001908152602001600020600b0160009054906101000a900460ff16600281111561358357fe5b141561359257600190506135d9565b60028081111561359e57fe5b60016000858152602001908152602001600020600b0160009054906101000a900460ff1660028111156135cd57fe5b14156135d857600290505b5b836040516020018082805190602001908083835b6020831061361057805182526020820191506020810190506020830392506135ed565b6001836020036101000a038019825116818451168082178552505050505050905001807f7b226974656d4964223a00000000000000000000000000000000000000000000815250600a0191505060405160208183030381529060405293508361367884614da9565b6040516020018083805190602001908083835b602083106136ae578051825260208201915060208101905060208303925061368b565b6001836020036101000a03801982511681845116808217855250505050505090500182805190602001908083835b602083106136ff57805182526020820191506020810190506020830392506136dc565b6001836020036101000a038019825116818451168082178552505050505050905001925050506040516020818303038152906040529350836040516020018082805190602001908083835b6020831061376d578051825260208201915060208101905060208303925061374a565b6001836020036101000a038019825116818451168082178552505050505050905001807f2c226974656d4e616d65223a2200000000000000000000000000000000000000815250600d01915050604051602081830303815290604052935083600160008581526020019081526020016000206001016040516020018083805190602001908083835b6020831061381857805182526020820191506020810190506020830392506137f5565b6001836020036101000a038019825116818451168082178552505050505050905001828054600181600116156101000203166002900480156138915780601f1061386f576101008083540402835291820191613891565b820191906000526020600020905b81548152906001019060200180831161387d575b5050925050506040516020818303038152906040529350836040516020018082805190602001908083835b602083106138df57805182526020820191506020810190506020830392506138bc565b6001836020036101000a038019825116818451168082178552505050505050905001807f222c226974656d4465736372697074696f6e223a202200000000000000000000815250601601915050604051602081830303815290604052935083600160008581526020019081526020016000206002016040516020018083805190602001908083835b6020831061398a5780518252602082019150602081019050602083039250613967565b6001836020036101000a03801982511681845116808217855250505050505090500182805460018160011615610100020316600290048015613a035780601f106139e1576101008083540402835291820191613a03565b820191906000526020600020905b8154815290600101906020018083116139ef575b5050925050506040516020818303038152906040529350836040516020018082805190602001908083835b60208310613a515780518252602082019150602081019050602083039250613a2e565b6001836020036101000a038019825116818451168082178552505050505050905001807f222c2261736b696e675072696365223a00000000000000000000000000000000815250601001915050604051602081830303815290604052935083613acf6001600086815260200190815260200160002060040154614da9565b6040516020018083805190602001908083835b60208310613b055780518252602082019150602081019050602083039250613ae2565b6001836020036101000a03801982511681845116808217855250505050505090500182805190602001908083835b60208310613b565780518252602082019150602081019050602083039250613b33565b6001836020036101000a038019825116818451168082178552505050505050905001925050506040516020818303038152906040529350836040516020018082805190602001908083835b60208310613bc45780518252602082019150602081019050602083039250613ba1565b6001836020036101000a038019825116818451168082178552505050505050905001807f2c2261756374696f6e54797065223a0000000000000000000000000000000000815250600f01915050604051602081830303815290604052935083613c2c83614da9565b6040516020018083805190602001908083835b60208310613c625780518252602082019150602081019050602083039250613c3f565b6001836020036101000a03801982511681845116808217855250505050505090500182805190602001908083835b60208310613cb35780518252602082019150602081019050602083039250613c90565b6001836020036101000a038019825116818451168082178552505050505050905001925050506040516020818303038152906040529350836040516020018082805190602001908083835b60208310613d215780518252602082019150602081019050602083039250613cfe565b6001836020036101000a038019825116818451168082178552505050505050905001807f2c2261756374696f6e537461747573223a000000000000000000000000000000815250601101915050604051602081830303815290604052935083613d8982614da9565b6040516020018083805190602001908083835b60208310613dbf5780518252602082019150602081019050602083039250613d9c565b6001836020036101000a03801982511681845116808217855250505050505090500182805190602001908083835b60208310613e105780518252602082019150602081019050602083039250613ded565b6001836020036101000a038019825116818451168082178552505050505050905001925050506040516020818303038152906040529350836040516020018082805190602001908083835b60208310613e7e5780518252602082019150602081019050602083039250613e5b565b6001836020036101000a038019825116818451168082178552505050505050905001807f2c2273656c6c65724964223a2022000000000000000000000000000000000000815250600e01915050604051602081830303815290604052935083613f6a6001600086815260200190815260200160002060000160009054906101000a900473ffffffffffffffffffffffffffffffffffffffff16604051602001808273ffffffffffffffffffffffffffffffffffffffff1673ffffffffffffffffffffffffffffffffffffffff1660601b8152601401915050604051602081830303815290604052614edd565b6040516020018083805190602001908083835b60208310613fa05780518252602082019150602081019050602083039250613f7d565b6001836020036101000a03801982511681845116808217855250505050505090500182805190602001908083835b60208310613ff15780518252602082019150602081019050602083039250613fce565b6001836020036101000a03801982511681845116808217855250505050505090500192505050604051602081830303815290604052935060005483146140cb57836040516020018082805190602001908083835b602083106140685780518252602082019150602081019050602083039250614045565b6001836020036101000a038019825116818451168082178552505050505050905001807f227d2c00000000000000000000000000000000000000000000000000000000008152506003019150506040516020818303038152906040529350614161565b836040516020018082805190602001908083835b6020831061410257805182526020820191506020810190506020830392506140df565b6001836020036101000a038019825116818451168082178552505050505050905001807f227d00000000000000000000000000000000000000000000000000000000000081525060020191505060405160208183030381529060405293505b50505b80806001019150506133ec565b50806040516020018082805190602001908083835b602083106141a95780518252602082019150602081019050602083039250614186565b6001836020036101000a038019825116818451168082178552505050505050905001807f5d00000000000000000000000000000000000000000000000000000000000000815250600101915050604051602081830303815290604052905080915050919050565b8160005481111580156142235750600081115b614295576040517f08c379a00000000000000000000000000000000000000000000000000000000081526004018080602001828103825260188152602001807f4974656d206e6f742070726573656e7420696e206c697374000000000000000081525060200191505060405180910390fd5b6001600082815260200190815260200160002060000160009054906101000a900473ffffffffffffffffffffffffffffffffffffffff1673ffffffffffffffffffffffffffffffffffffffff163373ffffffffffffffffffffffffffffffffffffffff161461436c576040517f08c379a000000000000000000000000000000000000000000000000000000000815260040180806020018281038252601a8152602001807f596f7520617265206e6f742073656c6c6572206f66206974656d00000000000081525060200191505060405180910390fd5b6001600381111561437957fe5b6001600085815260200190815260200160002060000160149054906101000a900460ff1660038111156143a857fe5b1461441b576040517f08c379a00000000000000000000000000000000000000000000000000000000081526004018080602001828103825260148152602001807f4974656d20697320616c726561647920736f6c6400000000000000000000000081525060200191505060405180910390fd5b60006001600085815260200190815260200160002060000160146101000a81548160ff0219169083600381111561444e57fe5b02179055508160016000858152602001908152602001600020600101908051906020019061447d9291906151cc565b50600180600085815260200190815260200160002060000160146101000a81548160ff021916908360038111156144b057fe5b0217905550505050565b6000846000815111614534576040517f08c379a000000000000000000000000000000000000000000000000000000000815260040180806020018281038252601a8152602001807f537472696e672073686f756c64206265206e6f6e20656d70747900000000000081525060200191505060405180910390fd5b8460008151116145ac576040517f08c379a000000000000000000000000000000000000000000000000000000000815260040180806020018281038252601a8152602001807f537472696e672073686f756c64206265206e6f6e20656d70747900000000000081525060200191505060405180910390fd5b60008081548092919060010191905055506000600160008054815260200190815260200160002060000160146101000a81548160ff021916908360038111156145f157fe5b021790555085600160008054815260200190815260200160002060020190805190602001906146219291906151cc565b5033600160008054815260200190815260200160002060000160006101000a81548173ffffffffffffffffffffffffffffffffffffffff021916908373ffffffffffffffffffffffffffffffffffffffff16021790555086600160008054815260200190815260200160002060010190805190602001906146a39291906151cc565b508460016000805481526020019081526020016000206004018190555060018060008054815260200190815260200160002060000160146101000a81548160ff021916908360038111156146f357fe5b021790555060006001600080548152602001908152602001600020600b0160006101000a81548160ff0219169083600281111561472c57fe5b021790555060008414156147785760006001600080548152602001908152602001600020600b0160016101000a81548160ff0219169083600381111561476e57fe5b0217905550614879565b60018414156147be57600180600080548152602001908152602001600020600b0160016101000a81548160ff021916908360038111156147b457fe5b0217905550614878565b60028414156148055760026001600080548152602001908152602001600020600b0160016101000a81548160ff021916908360038111156147fb57fe5b0217905550614877565b600180600080548152602001908152602001600020600b0160006101000a81548160ff0219169083600281111561483857fe5b021790555060036001600080548152602001908152602001600020600b0160016101000a81548160ff0219169083600381111561487157fe5b02179055505b5b5b60005492505050949350505050565b6001600082815260200190815260200160002060000160009054906101000a900473ffffffffffffffffffffffffffffffffffffffff1673ffffffffffffffffffffffffffffffffffffffff163373ffffffffffffffffffffffffffffffffffffffff16148061492357503073ffffffffffffffffffffffffffffffffffffffff163373ffffffffffffffffffffffffffffffffffffffff16145b614995576040517f08c379a000000000000000000000000000000000000000000000000000000000815260040180806020018281038252600d8152602001807f4163636573732064656e6965640000000000000000000000000000000000000081525060200191505060405180910390fd5b60005481111580156149a75750600081115b614a19576040517f08c379a00000000000000000000000000000000000000000000000000000000081526004018080602001828103825260188152602001807f4974656d206e6f742070726573656e7420696e206c697374000000000000000081525060200191505060405180910390fd5b60006002811115614a2657fe5b60016000838152602001908152602001600020600b0160009054906101000a900460ff166002811115614a5557fe5b14614ac8576040517f08c379a00000000000000000000000000000000000000000000000000000000081526004018080602001828103825260138152602001807f41756374696f6e206e6f74206f6e676f696e670000000000000000000000000081525060200191505060405180910390fd5b6001806000838152602001908152602001600020600b0160006101000a81548160ff02191690836002811115614afa57fe5b021790555050565b6000600160008381526020019081526020016000206005015460016000848152602001908152602001600020600801600101540390506001600083815260200190815260200160002060080160000160009054906101000a900473ffffffffffffffffffffffffffffffffffffffff1673ffffffffffffffffffffffffffffffffffffffff166108fc829081150290604051600060405180830381858888f19350505050158015614bb7573d6000803e3d6000fd5b505050565b6000818310614bcf578183039050614bd5565b82820390505b92915050565b60008090505b6001600083815260200190815260200160002060070180549050811015614da5576001600083815260200190815260200160002060080160000160009054906101000a900473ffffffffffffffffffffffffffffffffffffffff1673ffffffffffffffffffffffffffffffffffffffff16600160008481526020019081526020016000206007018281548110614c7357fe5b906000526020600020906003020160000160009054906101000a900473ffffffffffffffffffffffffffffffffffffffff1673ffffffffffffffffffffffffffffffffffffffff161415614cc657614d98565b6000600160008481526020019081526020016000206007018281548110614ce957fe5b9060005260206000209060030201600101549050600160008481526020019081526020016000206007018281548110614d1e57fe5b906000526020600020906003020160000160009054906101000a900473ffffffffffffffffffffffffffffffffffffffff1673ffffffffffffffffffffffffffffffffffffffff166108fc829081150290604051600060405180830381858888f19350505050158015614d95573d6000803e3d6000fd5b50505b8080600101915050614be1565b5050565b606060008290506000811415614df7576040518060400160405280600181526020017f3000000000000000000000000000000000000000000000000000000000000000815250915050614ed8565b600081905060005b60008214614e21578080600101915050600a8281614e1957fe5b049150614dff565b6060816040519080825280601f01601f191660200182016040528015614e565781602001600182028038833980820191505090505b50905060006001830390505b60008514614ecf57600a8581614e7457fe5b0660300160f81b82828060019003935081518110614e8e57fe5b60200101907effffffffffffffffffffffffffffffffffffffffffffffffffffffffffffff1916908160001a905350600a8581614ec757fe5b049450614e62565b81955050505050505b919050565b6060806040518060400160405280601081526020017f30313233343536373839616263646566000000000000000000000000000000008152509050606060028451026002016040519080825280601f01601f191660200182016040528015614f545781602001600182028038833980820191505090505b5090507f300000000000000000000000000000000000000000000000000000000000000081600081518110614f8557fe5b60200101907effffffffffffffffffffffffffffffffffffffffffffffffffffffffffffff1916908160001a9053507f780000000000000000000000000000000000000000000000000000000000000081600181518110614fe257fe5b60200101907effffffffffffffffffffffffffffffffffffffffffffffffffffffffffffff1916908160001a90535060008090505b84518110156151415782600486838151811061502f57fe5b602001015160f81c60f81b7effffffffffffffffffffffffffffffffffffffffffffffffffffffffffffff1916901c60f81c60ff168151811061506e57fe5b602001015160f81c60f81b82600283026002018151811061508b57fe5b60200101907effffffffffffffffffffffffffffffffffffffffffffffffffffffffffffff1916908160001a90535082600f60f81b8683815181106150cc57fe5b602001015160f81c60f81b1660f81c60ff16815181106150e857fe5b602001015160f81c60f81b82600283026003018151811061510557fe5b60200101907effffffffffffffffffffffffffffffffffffffffffffffffffffffffffffff1916908160001a9053508080600101915050615017565b508092505050919050565b828054600181600116156101000203166002900490600052602060002090601f016020900481019282601f1061518d57805160ff19168380011785556151bb565b828001600101855582156151bb579182015b828111156151ba57825182559160200191906001019061519f565b5b5090506151c89190615283565b5090565b828054600181600116156101000203166002900490600052602060002090601f016020900481019282601f1061520d57805160ff191683800117855561523b565b8280016001018555821561523b579182015b8281111561523a57825182559160200191906001019061521f565b5b5090506152489190615283565b5090565b6040518060600160405280600073ffffffffffffffffffffffffffffffffffffffff16815260200160008152602001606081525090565b6152a591905b808211156152a1576000816000905550600101615289565b5090565b9056fe596f7520617265206e6f74206f776e6572206f722073656c6c6572206f66206974656da265627a7a723158203cd0993851d6513e2fd84bc7ba258eec18cdcddfbe61fcd11a14efdb3cbaeb7764736f6c63430005100032",
  "source": "pragma solidity ^0.5.0;\n\n/**\n * @title   Screen Selling Platform\n * @notice  This contract abstracts the screen selling\n * marketplace and provides functions to perform\n * transactions\n * @author  Team Block-Daggers\n *\n */\ncontract Auction {\n    /**\n     * This enum defines status of screen (item) present in the\n     * marketplace\n     *\n     */\n    enum ITEM_STATUS {\n        LOCKED, /// Item is being processed, hence is not listed in marketplace\n        OPEN, /// Item is being sold at marketplace\n        BUYING, /// Buyer has paid for the item, but hasn't received it yet\n        BOUGHT /// Buyer received the item\n    }\n\n    enum AUCTION_STATUS {\n        ONGOING,\n        VERIFICATION,\n        REVEALED\n    }\n\n    enum AUCTION_TYPE {\n        FIRST_PRICE,\n        SECOND_PRICE,\n        AVG_PRICE,\n        FIXED\n    }\n\n    /**\n     * This struct defines the blueprint of each screen (item)\n     * present in the marketplace\n     *\n     */\n    struct Listing {\n        address payable seller;\n        ITEM_STATUS status;\n        string item_name;\n        string item_desc;\n        string secret_string;\n        uint256 asking_price;\n        uint256 final_price;\n        mapping(bytes32 => bool) hashedBids;\n        Bidder[] verifiedBids;\n        Bidder bidWinner;\n        AUCTION_STATUS auctionStatus;\n        AUCTION_TYPE auctionType;\n    }\n\n    struct Bidder {\n        address payable buyer;\n        uint256 price;\n        string public_key;\n    }\n\n    uint256 private itemsCount;\n    mapping(uint256 => Listing) private itemsList;\n\n    /**\n     * Initialising smart contract to the scenario when no item\n     * is present in the marketplace\n     *\n     */\n    constructor() public {\n        itemsCount = 0;\n    }\n\n    /**\n     * Allows only seller of item to access the function\n     *\n     * @param index unique id of item\n     */\n    modifier onlyItemSeller(uint256 index) {\n        require(index <= itemsCount && index > 0, \"Item not present in list\");\n        require(\n            msg.sender == itemsList[index].seller,\n            \"You are not seller of item\"\n        );\n        _;\n    }\n\n    /**\n     * Allows only buyer or seller to access the function\n     *\n     * @param index unique id of item\n     */\n    modifier onlyItemOwnerOrSeller(uint256 index) {\n        require(index <= itemsCount && index > 0, \"Item not present in list\");\n\n        require(\n            msg.sender == itemsList[index].seller ||\n                (msg.sender == itemsList[index].bidWinner.buyer &&\n                    itemsList[index].status == ITEM_STATUS.BOUGHT),\n            \"You are not owner or seller of item\"\n        );\n        _;\n    }\n\n    /**\n     * Checks empty string\n     * \n     * @param str string\n     */\n    modifier nonEmpty(string memory str){\n        require(bytes(str).length>0, \"String should be non empty\");\n        _;\n    }\n\n    /**\n     * Adds an item in the marketplace\n     * Used by: Seller\n     *\n     * @param _item_name name of item\n     * @param _item_desc description of item\n     * @param _asking_price asking price of item\n     */\n    function addItem(\n        string memory _item_name,\n        string memory _item_desc,\n        uint256 _asking_price,\n        uint256 _auction_type\n    ) \n    public \n    nonEmpty(_item_name)\n    nonEmpty(_item_desc)\n    returns (uint256) {\n        itemsCount++;\n        itemsList[itemsCount].status = ITEM_STATUS.LOCKED;\n        itemsList[itemsCount].item_desc = _item_desc;\n        itemsList[itemsCount].seller = msg.sender;\n        itemsList[itemsCount].item_name = _item_name;\n        itemsList[itemsCount].asking_price = _asking_price;\n        itemsList[itemsCount].status = ITEM_STATUS.OPEN;\n        itemsList[itemsCount].auctionStatus = AUCTION_STATUS.ONGOING;\n        if (_auction_type == 0) {\n            itemsList[itemsCount].auctionType = AUCTION_TYPE.FIRST_PRICE;\n        } else if (_auction_type == 1) {\n            itemsList[itemsCount].auctionType = AUCTION_TYPE.SECOND_PRICE;\n        } else if (_auction_type == 2) {\n            itemsList[itemsCount].auctionType = AUCTION_TYPE.AVG_PRICE;\n        } else {\n            itemsList[itemsCount].auctionStatus = AUCTION_STATUS.VERIFICATION;\n            itemsList[itemsCount].auctionType = AUCTION_TYPE.FIXED;\n        }\n        return itemsCount;\n    }\n\n    function bidItem(uint256 item_id, bytes32 hashString) public {\n        require(\n            item_id <= itemsCount && item_id > 0,\n            \"Item not present in list\"\n        );\n        require(\n            itemsList[item_id].auctionStatus == AUCTION_STATUS.ONGOING,\n            \"Auction not ongoing\"\n        );\n        itemsList[item_id].hashedBids[hashString] = true;\n    }\n\n    function closeBid(uint256 item_id) public {\n        require(\n            msg.sender == itemsList[item_id].seller || msg.sender == address(this),\n            'Access denied'\n        );\n        require(\n            item_id <= itemsCount && item_id > 0,\n            \"Item not present in list\"\n        );\n        require(\n            itemsList[item_id].auctionStatus == AUCTION_STATUS.ONGOING,\n            \"Auction not ongoing\"\n        );\n        itemsList[item_id].auctionStatus = AUCTION_STATUS.VERIFICATION;\n    }\n\n    function verifyBid(\n        uint256 item_id,\n        string memory password,\n        string memory public_key\n    ) public payable {\n        require(\n            item_id <= itemsCount && item_id > 0,\n            \"Item not present in list\"\n        );\n        require(\n            itemsList[item_id].auctionStatus == AUCTION_STATUS.VERIFICATION,\n            \"Bid verification not in progress\"\n        );\n        if(itemsList[item_id].auctionType == AUCTION_TYPE.FIXED){\n            if(msg.value == itemsList[item_id].asking_price){\n                itemsList[item_id].final_price = msg.value;\n                itemsList[item_id].bidWinner = Bidder(msg.sender, msg.value, public_key); \n                itemsList[item_id].status = ITEM_STATUS.BUYING;\n                itemsList[itemsCount].auctionStatus = AUCTION_STATUS.REVEALED;   // everything is done \n            }\n            else{\n                revert(\"Invalid Price\");\n            }\n        }\n        else{\n            bytes32 hashValue = keccak256(\n                abi.encodePacked(msg.sender, password, msg.value)\n            );\n            if(itemsList[item_id].hashedBids[hashValue] != true){\n                revert(\"Invalid details\");\n            }\n\n            itemsList[item_id].verifiedBids.push(\n                Bidder(msg.sender, msg.value, public_key)\n            );\n        }\n\n    }\n\n    function abs(uint256 a, uint256 b) private pure returns (uint256) {\n        if (a >= b) {\n            return a - b;\n        } else {\n            return b - a;\n        }\n    }\n\n    function revealBid(uint256 item_id) public payable onlyItemSeller(item_id){\n        require(\n            item_id <= itemsCount && item_id > 0,\n            \"Item not present in list\"\n        );\n        require(\n            itemsList[item_id].auctionStatus == AUCTION_STATUS.VERIFICATION,\n            \"Bid verification not in progress\"\n        );\n\n        uint256 maxBid = 0;\n        Bidder memory maxBidder;\n        uint256 secondMaxBid = 0;\n        uint256 totalBid = 0;\n\n        for (uint256 i = 0; i < itemsList[item_id].verifiedBids.length; i++) {\n            uint256 currentBidPrice = itemsList[item_id].verifiedBids[i].price;\n            totalBid += currentBidPrice;\n            if (currentBidPrice > maxBid) {\n                secondMaxBid = maxBid;\n                maxBid = currentBidPrice;\n                maxBidder = itemsList[item_id].verifiedBids[i];\n            } else if (currentBidPrice > secondMaxBid) {\n                secondMaxBid = currentBidPrice;\n            }\n        }\n\n        if (itemsList[item_id].auctionType == AUCTION_TYPE.FIRST_PRICE) {\n            itemsList[item_id].bidWinner = maxBidder;\n            itemsList[item_id].final_price = maxBid;\n        } else if (\n            itemsList[item_id].auctionType == AUCTION_TYPE.SECOND_PRICE\n        ) {\n            itemsList[item_id].bidWinner = maxBidder;\n            itemsList[item_id].final_price = secondMaxBid;\n        } else if(itemsList[item_id].auctionType == AUCTION_TYPE.AVG_PRICE) {\n            uint256 minDiff = 0;\n            Bidder memory avgBidder;\n            uint256 n = itemsList[item_id].verifiedBids.length;\n            for (uint256 i = 0; i < n; i++) {\n                uint256 currentBidPrice = itemsList[item_id]\n                    .verifiedBids[i]\n                    .price * n;\n                if (abs(currentBidPrice, totalBid) < minDiff) {\n                    avgBidder = itemsList[item_id].verifiedBids[i];\n                }\n\n                itemsList[item_id].bidWinner = avgBidder;\n                itemsList[item_id].final_price = avgBidder.price;\n            }\n        } else{\n            // normal purchase, do nothing\n        }\n\n        itemsList[item_id].status = ITEM_STATUS.BUYING;\n        itemsList[itemsCount].auctionStatus = AUCTION_STATUS.REVEALED;\n        returnNonWinnerMoney(item_id);\n    }\n\n    /**\n     * Gets public key of the buyer from the item being bought\n     * Used by: Seller\n     *\n     * @param item_id unique id of item\n     */\n    function getKey(uint256 item_id)\n        public\n        view\n        onlyItemSeller(item_id)\n        returns (string memory)\n    {\n        require(\n            itemsList[item_id].status == ITEM_STATUS.BUYING,\n            \"KEY NOT AVAILABLE\"\n        );\n        return itemsList[item_id].bidWinner.public_key;\n    }\n\n    /**\n     * Assigns encrypted password to the item which can be only decrypted\n     * by the buyer\n     * Thus, it simulates delivery of the screen (item) from the seller\n     * Item is marked as BOUGHT\n     * Used by: Seller\n     *\n     * @param item_id unique id of item\n     * @param secret_string Encrypted password of the screen (i.e.\n     *                           item) along with the public key of the buyer\n     */\n    function giveAccess(uint256 item_id, string memory secret_string)\n        public\n        payable\n        onlyItemSeller(item_id)\n    {\n        require(\n            itemsList[item_id].status == ITEM_STATUS.BUYING,\n            \"Item not purchased yet\"\n        );\n        itemsList[item_id].secret_string = secret_string;\n        itemsList[item_id].status = ITEM_STATUS.BOUGHT;\n        itemsList[item_id].seller.transfer(itemsList[item_id].final_price);\n        // return pending money of bid winner like in case of auction type 2\n        returnWinnerPendingMoney(item_id);\n    }\n\n    function returnWinnerPendingMoney(uint256 item_id) private {\n        uint256 pendingMoney = itemsList[item_id].bidWinner.price -\n            itemsList[item_id].final_price;\n        itemsList[item_id].bidWinner.buyer.transfer(pendingMoney);\n    }\n\n    function returnNonWinnerMoney(uint256 item_id) private {\n        for (uint256 i = 0; i < itemsList[item_id].verifiedBids.length; i++) {\n            if (\n                itemsList[item_id].verifiedBids[i].buyer ==\n                itemsList[item_id].bidWinner.buyer\n            ) {\n                continue;\n            }\n\n            uint256 returnPrice = itemsList[item_id].verifiedBids[i].price;\n            itemsList[item_id].verifiedBids[i].buyer.transfer(returnPrice);\n        }\n    }\n\n    /**\n     * @dev View pending balance in escrow account\n     * Used by: Developer\n     *\n     */\n    function getBalance() public view returns (uint256) {\n        return address(this).balance;\n    }\n\n    /**\n     * Returns encrypted password of the delivered item\n     * Used by: Buyer, (optional) Seller\n     *\n     * @param item_id unique id of item\n     */\n    function accessItem(uint256 item_id)\n        public\n        view\n        onlyItemOwnerOrSeller(item_id)\n        returns (string memory)\n    {\n        return itemsList[item_id].secret_string;\n    }\n\n    /**\n     * Updates the name of the item listed in the marketplace\n     * Used by: Seller\n     *\n     * @param item_id unique id of item\n     * @param item_name name of item\n     */\n    function changeName(uint256 item_id, string memory item_name)\n        public\n        onlyItemSeller(item_id)\n    {\n        require(\n            itemsList[item_id].status == ITEM_STATUS.OPEN,\n            \"Item is already sold\"\n        );\n        itemsList[item_id].status = ITEM_STATUS.LOCKED;\n        itemsList[item_id].item_name = item_name;\n        itemsList[item_id].status = ITEM_STATUS.OPEN;\n    }\n\n    /**\n     * Updates the price of the item listed in the marketplace\n     * Used by: seller\n     *\n     * @param item_id unique id of item\n     * @param price item price\n     */\n    function changePrice(uint256 item_id, uint256 price)\n        public\n        onlyItemSeller(item_id)\n    {\n        require(\n            itemsList[item_id].status == ITEM_STATUS.OPEN,\n            \"Item is already sold\"\n        );\n        itemsList[item_id].status = ITEM_STATUS.LOCKED;\n        itemsList[item_id].asking_price = price;\n        itemsList[item_id].status = ITEM_STATUS.OPEN;\n    }\n\n    /**\n     * Converts an unsigned integer to its equivalent string\n     *\n     * @param _i number\n     */\n    function uintToStr(uint256 _i)\n        private\n        pure\n        returns (string memory _uintAsString)\n    {\n        uint256 number = _i;\n        if (number == 0) {\n            return \"0\";\n        }\n        uint256 j = number;\n        uint256 len;\n        while (j != 0) {\n            len++;\n            j /= 10;\n        }\n        bytes memory bstr = new bytes(len);\n        uint256 k = len - 1;\n        while (number != 0) {\n            bstr[k--] = bytes1(uint8(48 + (number % 10)));\n            number /= 10;\n        }\n        return string(bstr);\n    }\n\n    /**\n     * Converts address to string\n     * Source: https://ethereum.stackexchange.com/a/58341\n     *\n     * @param account address of account\n     */\n    function toString(address account) private pure returns (string memory) {\n        return toString(abi.encodePacked(account));\n    }\n\n    function toString(bytes memory data) private pure returns (string memory) {\n        bytes memory alphabet = \"0123456789abcdef\";\n\n        bytes memory str = new bytes(2 + data.length * 2);\n        str[0] = \"0\";\n        str[1] = \"x\";\n        for (uint256 i = 0; i < data.length; i++) {\n            str[2 + i * 2] = alphabet[uint256(uint8(data[i] >> 4))];\n            str[3 + i * 2] = alphabet[uint256(uint8(data[i] & 0x0f))];\n        }\n        return string(str);\n    }\n\n    /**\n     * Returns the items present in the marketplace, which are\n     * ready to be sold\n     * Used by: public\n     *\n     */\n    function viewActiveListings() public view returns (string memory) {\n        string memory str = \"[\";\n        for (uint256 i = 1; i <= itemsCount; i++) {\n            if (itemsList[i].auctionStatus == AUCTION_STATUS.ONGOING || (itemsList[i].auctionStatus == AUCTION_STATUS.VERIFICATION && itemsList[i].auctionType == AUCTION_TYPE.FIXED)) {\n                uint at = 0;\n                if(itemsList[i].auctionType == AUCTION_TYPE.SECOND_PRICE){\n                    at=1;\n                }\n                else if(itemsList[i].auctionType == AUCTION_TYPE.AVG_PRICE){\n                    at = 2;\n                }\n                else if(itemsList[i].auctionType == AUCTION_TYPE.FIXED){\n                    at = 3;\n                }\n                uint ast = 0;\n                if(itemsList[i].auctionStatus == AUCTION_STATUS.VERIFICATION){\n                    ast = 1;\n                }\n                else if(itemsList[i].auctionStatus == AUCTION_STATUS.REVEALED)\n                {\n                    ast = 2;\n                }\n                \n                str = string(abi.encodePacked(str, '{\"itemId\":'));\n                str = string(abi.encodePacked(str, uintToStr(i)));\n                str = string(abi.encodePacked(str, ',\"itemName\":\"'));\n                str = string(abi.encodePacked(str, itemsList[i].item_name));\n                str = string(abi.encodePacked(str, '\",\"itemDescription\": \"'));\n                str = string(abi.encodePacked(str, itemsList[i].item_desc));\n                str = string(abi.encodePacked(str, '\",\"askingPrice\":'));\n                str = string(abi.encodePacked(str, uintToStr(itemsList[i].asking_price)));\n                str = string(abi.encodePacked(str, ',\"auctionType\":'));\n                str = string(abi.encodePacked(str, uintToStr(at)));\n                str = string(abi.encodePacked(str, ',\"auctionStatus\":'));\n                str = string(abi.encodePacked(str, uintToStr(ast)));\n                str = string(abi.encodePacked(str, ',\"sellerId\": \"'));\n                str = string(abi.encodePacked(str,toString(abi.encodePacked(itemsList[i].seller))));\n                if(i != itemsCount)\n                {\n                    str = string(abi.encodePacked(str, '\"},'));\n                }\n                else\n                {\n                    str = string(abi.encodePacked(str, '\"}'));\n                }\n            }\n        }\n        str = string(abi.encodePacked(str, \"]\"));\n        return str;\n    }\n\n    function viewSellerListings(address seller_id) public view returns (string memory) {\n        string memory str = \"[\";\n        for (uint256 i = 1; i <= itemsCount; i++) {\n            if (itemsList[i].seller == seller_id) {\n                uint at = 0;\n                if(itemsList[i].auctionType == AUCTION_TYPE.SECOND_PRICE){\n                    at=1;\n                }\n                else if(itemsList[i].auctionType == AUCTION_TYPE.AVG_PRICE){\n                    at = 2;\n                }\n                else if(itemsList[i].auctionType == AUCTION_TYPE.FIXED){\n                    at = 3;\n                }\n                uint ast = 0;\n                if(itemsList[i].auctionStatus == AUCTION_STATUS.VERIFICATION){\n                    ast = 1;\n                }\n                else if(itemsList[i].auctionStatus == AUCTION_STATUS.REVEALED)\n                {\n                    ast = 2;\n                }\n                \n                str = string(abi.encodePacked(str, '{\"itemId\":'));\n                str = string(abi.encodePacked(str, uintToStr(i)));\n                str = string(abi.encodePacked(str, ',\"itemName\":\"'));\n                str = string(abi.encodePacked(str, itemsList[i].item_name));\n                str = string(abi.encodePacked(str, '\",\"itemDescription\": \"'));\n                str = string(abi.encodePacked(str, itemsList[i].item_desc));\n                str = string(abi.encodePacked(str, '\",\"askingPrice\":'));\n                str = string(abi.encodePacked(str, uintToStr(itemsList[i].asking_price)));\n                str = string(abi.encodePacked(str, ',\"auctionType\":'));\n                str = string(abi.encodePacked(str, uintToStr(at)));\n                str = string(abi.encodePacked(str, ',\"auctionStatus\":'));\n                str = string(abi.encodePacked(str, uintToStr(ast)));\n                str = string(abi.encodePacked(str, ',\"sellerId\": \"'));\n                str = string(abi.encodePacked(str,toString(abi.encodePacked(itemsList[i].seller))));\n                if(i != itemsCount)\n                {\n                    str = string(abi.encodePacked(str, '\"},'));\n                }\n                else\n                {\n                    str = string(abi.encodePacked(str, '\"}'));\n                }\n            }\n        }\n        str = string(abi.encodePacked(str, \"]\"));\n        return str;\n    }    \n}",
  "sourcePath": "/home/b30wulffz/IIITH/monsoon2021/blockchain/assign2/AuctionApp2/contracts/Auction.sol",
  "compiler": {
    "name": "solc",
    "version": "0.5.16+commit.9c3226ce.Emscripten.clang"
  },
  "schemaVersion": "3.4.3",
  "updatedAt": "2021-10-10T06:07:10.547Z",
  "networkType": "ethereum",
  "devdoc": {
    "author": "Team Block-Daggers ",
    "methods": {
      "accessItem(uint256)": {
        "params": {
          "item_id": "unique id of item"
        }
      },
      "addItem(string,string,uint256,uint256)": {
        "params": {
          "_asking_price": "asking price of item",
          "_item_desc": "description of item",
          "_item_name": "name of item"
        }
      },
      "changeName(uint256,string)": {
        "params": {
          "item_id": "unique id of item",
          "item_name": "name of item"
        }
      },
      "changePrice(uint256,uint256)": {
        "params": {
          "item_id": "unique id of item",
          "price": "item price"
        }
      },
      "getBalance()": {
        "details": "View pending balance in escrow account Used by: Developer     "
      },
      "getKey(uint256)": {
        "params": {
          "item_id": "unique id of item"
        }
      },
      "giveAccess(uint256,string)": {
        "params": {
          "item_id": "unique id of item",
          "secret_string": "Encrypted password of the screen (i.e.                          item) along with the public key of the buyer"
        }
      }
    },
    "title": "Screen Selling Platform"
  },
  "userdoc": {
    "methods": {
      "accessItem(uint256)": {
        "notice": "Returns encrypted password of the delivered item Used by: Buyer, (optional) Seller"
      },
      "addItem(string,string,uint256,uint256)": {
        "notice": "Adds an item in the marketplace Used by: Seller"
      },
      "changeName(uint256,string)": {
        "notice": "Updates the name of the item listed in the marketplace Used by: Seller"
      },
      "changePrice(uint256,uint256)": {
        "notice": "Updates the price of the item listed in the marketplace Used by: seller"
      },
      "constructor": "Initialising smart contract to the scenario when no item is present in the marketplace     ",
      "getKey(uint256)": {
        "notice": "Gets public key of the buyer from the item being bought Used by: Seller"
      },
      "giveAccess(uint256,string)": {
        "notice": "Assigns encrypted password to the item which can be only decrypted by the buyer Thus, it simulates delivery of the screen (item) from the seller Item is marked as BOUGHT Used by: Seller"
      },
      "viewActiveListings()": {
        "notice": "Returns the items present in the marketplace, which are ready to be sold Used by: public     "
      }
    },
    "notice": "This contract abstracts the screen selling marketplace and provides functions to perform transactions"
  }
}